{
	"contracts/MyToken.sol": {
		"ERC721": {
			"abi": [
				{
					"inputs": [],
					"payable": false,
					"stateMutability": "nonpayable",
					"type": "constructor"
				},
				{
					"anonymous": false,
					"inputs": [
						{
							"indexed": true,
							"internalType": "address",
							"name": "owner",
							"type": "address"
						},
						{
							"indexed": true,
							"internalType": "address",
							"name": "approved",
							"type": "address"
						},
						{
							"indexed": true,
							"internalType": "uint256",
							"name": "tokenId",
							"type": "uint256"
						}
					],
					"name": "Approval",
					"type": "event"
				},
				{
					"anonymous": false,
					"inputs": [
						{
							"indexed": true,
							"internalType": "address",
							"name": "owner",
							"type": "address"
						},
						{
							"indexed": true,
							"internalType": "address",
							"name": "operator",
							"type": "address"
						},
						{
							"indexed": false,
							"internalType": "bool",
							"name": "approved",
							"type": "bool"
						}
					],
					"name": "ApprovalForAll",
					"type": "event"
				},
				{
					"anonymous": false,
					"inputs": [
						{
							"indexed": true,
							"internalType": "address",
							"name": "from",
							"type": "address"
						},
						{
							"indexed": true,
							"internalType": "address",
							"name": "to",
							"type": "address"
						},
						{
							"indexed": true,
							"internalType": "uint256",
							"name": "tokenId",
							"type": "uint256"
						}
					],
					"name": "Transfer",
					"type": "event"
				},
				{
					"constant": false,
					"inputs": [
						{
							"internalType": "address",
							"name": "to",
							"type": "address"
						},
						{
							"internalType": "uint256",
							"name": "tokenId",
							"type": "uint256"
						}
					],
					"name": "approve",
					"outputs": [],
					"payable": false,
					"stateMutability": "nonpayable",
					"type": "function"
				},
				{
					"constant": true,
					"inputs": [
						{
							"internalType": "address",
							"name": "owner",
							"type": "address"
						}
					],
					"name": "balanceOf",
					"outputs": [
						{
							"internalType": "uint256",
							"name": "",
							"type": "uint256"
						}
					],
					"payable": false,
					"stateMutability": "view",
					"type": "function"
				},
				{
					"constant": true,
					"inputs": [
						{
							"internalType": "uint256",
							"name": "tokenId",
							"type": "uint256"
						}
					],
					"name": "getApproved",
					"outputs": [
						{
							"internalType": "address",
							"name": "",
							"type": "address"
						}
					],
					"payable": false,
					"stateMutability": "view",
					"type": "function"
				},
				{
					"constant": true,
					"inputs": [
						{
							"internalType": "address",
							"name": "owner",
							"type": "address"
						},
						{
							"internalType": "address",
							"name": "operator",
							"type": "address"
						}
					],
					"name": "isApprovedForAll",
					"outputs": [
						{
							"internalType": "bool",
							"name": "",
							"type": "bool"
						}
					],
					"payable": false,
					"stateMutability": "view",
					"type": "function"
				},
				{
					"constant": true,
					"inputs": [
						{
							"internalType": "uint256",
							"name": "tokenId",
							"type": "uint256"
						}
					],
					"name": "ownerOf",
					"outputs": [
						{
							"internalType": "address",
							"name": "",
							"type": "address"
						}
					],
					"payable": false,
					"stateMutability": "view",
					"type": "function"
				},
				{
					"constant": false,
					"inputs": [
						{
							"internalType": "uint256",
							"name": "tokenId",
							"type": "uint256"
						}
					],
					"name": "revoke",
					"outputs": [],
					"payable": false,
					"stateMutability": "nonpayable",
					"type": "function"
				},
				{
					"constant": false,
					"inputs": [
						{
							"internalType": "address",
							"name": "from",
							"type": "address"
						},
						{
							"internalType": "address",
							"name": "to",
							"type": "address"
						},
						{
							"internalType": "uint256",
							"name": "tokenId",
							"type": "uint256"
						}
					],
					"name": "safeTransferFrom",
					"outputs": [],
					"payable": false,
					"stateMutability": "nonpayable",
					"type": "function"
				},
				{
					"constant": false,
					"inputs": [
						{
							"internalType": "address",
							"name": "from",
							"type": "address"
						},
						{
							"internalType": "address",
							"name": "to",
							"type": "address"
						},
						{
							"internalType": "uint256",
							"name": "tokenId",
							"type": "uint256"
						},
						{
							"internalType": "bytes",
							"name": "_data",
							"type": "bytes"
						}
					],
					"name": "safeTransferFrom",
					"outputs": [],
					"payable": false,
					"stateMutability": "nonpayable",
					"type": "function"
				},
				{
					"constant": false,
					"inputs": [
						{
							"internalType": "address",
							"name": "to",
							"type": "address"
						},
						{
							"internalType": "bool",
							"name": "approved",
							"type": "bool"
						}
					],
					"name": "setApprovalForAll",
					"outputs": [],
					"payable": false,
					"stateMutability": "nonpayable",
					"type": "function"
				},
				{
					"constant": true,
					"inputs": [
						{
							"internalType": "bytes4",
							"name": "interfaceId",
							"type": "bytes4"
						}
					],
					"name": "supportsInterface",
					"outputs": [
						{
							"internalType": "bool",
							"name": "",
							"type": "bool"
						}
					],
					"payable": false,
					"stateMutability": "view",
					"type": "function"
				},
				{
					"constant": false,
					"inputs": [
						{
							"internalType": "address",
							"name": "from",
							"type": "address"
						},
						{
							"internalType": "address",
							"name": "to",
							"type": "address"
						},
						{
							"internalType": "uint256",
							"name": "tokenId",
							"type": "uint256"
						}
					],
					"name": "transferFrom",
					"outputs": [],
					"payable": false,
					"stateMutability": "nonpayable",
					"type": "function"
				}
			],
			"devdoc": {
				"methods": {}
			},
			"evm": {
				"assembly": "    /* \"contracts/MyToken.sol\":4160:10052  contract ERC721 is ERC165, IERC721 {... */\n  mstore(0x40, 0x80)\n    /* \"contracts/MyToken.sol\":5577:5665  constructor () public {... */\n  callvalue\n    /* \"--CODEGEN--\":8:17   */\n  dup1\n    /* \"--CODEGEN--\":5:7   */\n  iszero\n  tag_1\n  jumpi\n    /* \"--CODEGEN--\":30:31   */\n  0x00\n    /* \"--CODEGEN--\":27:28   */\n  dup1\n    /* \"--CODEGEN--\":20:32   */\n  revert\n    /* \"--CODEGEN--\":5:7   */\ntag_1:\n    /* \"contracts/MyToken.sol\":5577:5665  constructor () public {... */\n  pop\n    /* \"contracts/MyToken.sol\":2330:2370  _registerInterface(_INTERFACE_ID_ERC165) */\n  tag_5\n    /* \"contracts/MyToken.sol\":2220:2230  0x01ffc9a7 */\n  0x01ffc9a7\n    /* \"contracts/MyToken.sol\":2349:2369  _INTERFACE_ID_ERC165 */\n  0xe0\n  shl\n    /* \"contracts/MyToken.sol\":2330:2348  _registerInterface */\n  shl(0x20, tag_6)\n    /* \"contracts/MyToken.sol\":2330:2370  _registerInterface(_INTERFACE_ID_ERC165) */\n  0x20\n  shr\n  jump\t// in\ntag_5:\n    /* \"contracts/MyToken.sol\":5618:5658  _registerInterface(_INTERFACE_ID_ERC721) */\n  tag_8\n    /* \"contracts/MyToken.sol\":5560:5570  0x80ac58cd */\n  0x80ac58cd\n    /* \"contracts/MyToken.sol\":5637:5657  _INTERFACE_ID_ERC721 */\n  0xe0\n  shl\n    /* \"contracts/MyToken.sol\":5618:5636  _registerInterface */\n  shl(0x20, tag_6)\n    /* \"contracts/MyToken.sol\":5618:5658  _registerInterface(_INTERFACE_ID_ERC721) */\n  0x20\n  shr\n  jump\t// in\ntag_8:\n    /* \"contracts/MyToken.sol\":4160:10052  contract ERC721 is ERC165, IERC721 {... */\n  jump(tag_9)\n    /* \"contracts/MyToken.sol\":2524:2714  function _registerInterface(bytes4 interfaceId) internal {... */\ntag_6:\n    /* \"contracts/MyToken.sol\":2614:2624  0xffffffff */\n  0xffffffff\n    /* \"contracts/MyToken.sol\":2599:2624  interfaceId != 0xffffffff */\n  0xe0\n  shl\n    /* \"contracts/MyToken.sol\":2599:2610  interfaceId */\n  dup2\n    /* \"contracts/MyToken.sol\":2599:2624  interfaceId != 0xffffffff */\n  not(0xffffffffffffffffffffffffffffffffffffffffffffffffffffffff)\n  and\n  eq\n  iszero\n    /* \"contracts/MyToken.sol\":2591:2657  require(interfaceId != 0xffffffff, \"ERC165: invalid interface id\") */\n  tag_11\n  jumpi\n  mload(0x40)\n  0x08c379a000000000000000000000000000000000000000000000000000000000\n  dup2\n  mstore\n  0x04\n  add\n  dup1\n  dup1\n  0x20\n  add\n  dup3\n  dup2\n  sub\n  dup3\n  mstore\n  0x1c\n  dup2\n  mstore\n  0x20\n  add\n  dup1\n  0x4552433136353a20696e76616c696420696e7465726661636520696400000000\n  dup2\n  mstore\n  pop\n  0x20\n  add\n  swap2\n  pop\n  pop\n  mload(0x40)\n  dup1\n  swap2\n  sub\n  swap1\n  revert\ntag_11:\n    /* \"contracts/MyToken.sol\":2703:2707  true */\n  0x01\n    /* \"contracts/MyToken.sol\":2667:2687  _supportedInterfaces */\n  0x00\n    /* \"contracts/MyToken.sol\":2667:2700  _supportedInterfaces[interfaceId] */\n  dup1\n    /* \"contracts/MyToken.sol\":2688:2699  interfaceId */\n  dup4\n    /* \"contracts/MyToken.sol\":2667:2700  _supportedInterfaces[interfaceId] */\n  not(0xffffffffffffffffffffffffffffffffffffffffffffffffffffffff)\n  and\n  not(0xffffffffffffffffffffffffffffffffffffffffffffffffffffffff)\n  and\n  dup2\n  mstore\n  0x20\n  add\n  swap1\n  dup2\n  mstore\n  0x20\n  add\n  0x00\n  keccak256\n  0x00\n    /* \"contracts/MyToken.sol\":2667:2707  _supportedInterfaces[interfaceId] = true */\n  0x0100\n  exp\n  dup2\n  sload\n  dup2\n  0xff\n  mul\n  not\n  and\n  swap1\n  dup4\n  iszero\n  iszero\n  mul\n  or\n  swap1\n  sstore\n  pop\n    /* \"contracts/MyToken.sol\":2524:2714  function _registerInterface(bytes4 interfaceId) internal {... */\n  pop\n  jump\t// out\n    /* \"contracts/MyToken.sol\":4160:10052  contract ERC721 is ERC165, IERC721 {... */\ntag_9:\n  dataSize(sub_0)\n  dup1\n  dataOffset(sub_0)\n  0x00\n  codecopy\n  0x00\n  return\nstop\n\nsub_0: assembly {\n        /* \"contracts/MyToken.sol\":4160:10052  contract ERC721 is ERC165, IERC721 {... */\n      mstore(0x40, 0x80)\n      callvalue\n        /* \"--CODEGEN--\":8:17   */\n      dup1\n        /* \"--CODEGEN--\":5:7   */\n      iszero\n      tag_1\n      jumpi\n        /* \"--CODEGEN--\":30:31   */\n      0x00\n        /* \"--CODEGEN--\":27:28   */\n      dup1\n        /* \"--CODEGEN--\":20:32   */\n      revert\n        /* \"--CODEGEN--\":5:7   */\n    tag_1:\n        /* \"contracts/MyToken.sol\":4160:10052  contract ERC721 is ERC165, IERC721 {... */\n      pop\n      jumpi(tag_2, lt(calldatasize, 0x04))\n      shr(0xe0, calldataload(0x00))\n      dup1\n      0x42842e0e\n      gt\n      tag_14\n      jumpi\n      dup1\n      0x42842e0e\n      eq\n      tag_8\n      jumpi\n      dup1\n      0x6352211e\n      eq\n      tag_9\n      jumpi\n      dup1\n      0x70a08231\n      eq\n      tag_10\n      jumpi\n      dup1\n      0xa22cb465\n      eq\n      tag_11\n      jumpi\n      dup1\n      0xb88d4fde\n      eq\n      tag_12\n      jumpi\n      dup1\n      0xe985e9c5\n      eq\n      tag_13\n      jumpi\n      jump(tag_2)\n    tag_14:\n      dup1\n      0x01ffc9a7\n      eq\n      tag_3\n      jumpi\n      dup1\n      0x081812fc\n      eq\n      tag_4\n      jumpi\n      dup1\n      0x095ea7b3\n      eq\n      tag_5\n      jumpi\n      dup1\n      0x20c5429b\n      eq\n      tag_6\n      jumpi\n      dup1\n      0x23b872dd\n      eq\n      tag_7\n      jumpi\n    tag_2:\n      0x00\n      dup1\n      revert\n        /* \"contracts/MyToken.sol\":2384:2517  function supportsInterface(bytes4 interfaceId) external view returns (bool) {... */\n    tag_3:\n      tag_15\n      0x04\n      dup1\n      calldatasize\n      sub\n        /* \"--CODEGEN--\":13:15   */\n      0x20\n        /* \"--CODEGEN--\":8:11   */\n      dup2\n        /* \"--CODEGEN--\":5:16   */\n      lt\n        /* \"--CODEGEN--\":2:4   */\n      iszero\n      tag_16\n      jumpi\n        /* \"--CODEGEN--\":29:30   */\n      0x00\n        /* \"--CODEGEN--\":26:27   */\n      dup1\n        /* \"--CODEGEN--\":19:31   */\n      revert\n        /* \"--CODEGEN--\":2:4   */\n    tag_16:\n        /* \"contracts/MyToken.sol\":2384:2517  function supportsInterface(bytes4 interfaceId) external view returns (bool) {... */\n      dup2\n      add\n      swap1\n      dup1\n      dup1\n      calldataload\n      not(0xffffffffffffffffffffffffffffffffffffffffffffffffffffffff)\n      and\n      swap1\n      0x20\n      add\n      swap1\n      swap3\n      swap2\n      swap1\n      pop\n      pop\n      pop\n      tag_17\n      jump\t// in\n    tag_15:\n      mload(0x40)\n      dup1\n      dup3\n      iszero\n      iszero\n      iszero\n      iszero\n      dup2\n      mstore\n      0x20\n      add\n      swap2\n      pop\n      pop\n      mload(0x40)\n      dup1\n      swap2\n      sub\n      swap1\n      return\n        /* \"contracts/MyToken.sol\":6322:6474  function getApproved(uint256 tokenId) public view returns (address) {... */\n    tag_4:\n      tag_18\n      0x04\n      dup1\n      calldatasize\n      sub\n        /* \"--CODEGEN--\":13:15   */\n      0x20\n        /* \"--CODEGEN--\":8:11   */\n      dup2\n        /* \"--CODEGEN--\":5:16   */\n      lt\n        /* \"--CODEGEN--\":2:4   */\n      iszero\n      tag_19\n      jumpi\n        /* \"--CODEGEN--\":29:30   */\n      0x00\n        /* \"--CODEGEN--\":26:27   */\n      dup1\n        /* \"--CODEGEN--\":19:31   */\n      revert\n        /* \"--CODEGEN--\":2:4   */\n    tag_19:\n        /* \"contracts/MyToken.sol\":6322:6474  function getApproved(uint256 tokenId) public view returns (address) {... */\n      dup2\n      add\n      swap1\n      dup1\n      dup1\n      calldataload\n      swap1\n      0x20\n      add\n      swap1\n      swap3\n      swap2\n      swap1\n      pop\n      pop\n      pop\n      tag_20\n      jump\t// in\n    tag_18:\n      mload(0x40)\n      dup1\n      dup3\n      0xffffffffffffffffffffffffffffffffffffffff\n      and\n      0xffffffffffffffffffffffffffffffffffffffff\n      and\n      dup2\n      mstore\n      0x20\n      add\n      swap2\n      pop\n      pop\n      mload(0x40)\n      dup1\n      swap2\n      sub\n      swap1\n      return\n        /* \"contracts/MyToken.sol\":6023:6316  function approve(address to, uint256 tokenId) public {... */\n    tag_5:\n      tag_21\n      0x04\n      dup1\n      calldatasize\n      sub\n        /* \"--CODEGEN--\":13:15   */\n      0x40\n        /* \"--CODEGEN--\":8:11   */\n      dup2\n        /* \"--CODEGEN--\":5:16   */\n      lt\n        /* \"--CODEGEN--\":2:4   */\n      iszero\n      tag_22\n      jumpi\n        /* \"--CODEGEN--\":29:30   */\n      0x00\n        /* \"--CODEGEN--\":26:27   */\n      dup1\n        /* \"--CODEGEN--\":19:31   */\n      revert\n        /* \"--CODEGEN--\":2:4   */\n    tag_22:\n        /* \"contracts/MyToken.sol\":6023:6316  function approve(address to, uint256 tokenId) public {... */\n      dup2\n      add\n      swap1\n      dup1\n      dup1\n      calldataload\n      0xffffffffffffffffffffffffffffffffffffffff\n      and\n      swap1\n      0x20\n      add\n      swap1\n      swap3\n      swap2\n      swap1\n      dup1\n      calldataload\n      swap1\n      0x20\n      add\n      swap1\n      swap3\n      swap2\n      swap1\n      pop\n      pop\n      pop\n      tag_23\n      jump\t// in\n    tag_21:\n      stop\n        /* \"contracts/MyToken.sol\":8305:8487  function revoke(uint256 tokenId) public {        ... */\n    tag_6:\n      tag_24\n      0x04\n      dup1\n      calldatasize\n      sub\n        /* \"--CODEGEN--\":13:15   */\n      0x20\n        /* \"--CODEGEN--\":8:11   */\n      dup2\n        /* \"--CODEGEN--\":5:16   */\n      lt\n        /* \"--CODEGEN--\":2:4   */\n      iszero\n      tag_25\n      jumpi\n        /* \"--CODEGEN--\":29:30   */\n      0x00\n        /* \"--CODEGEN--\":26:27   */\n      dup1\n        /* \"--CODEGEN--\":19:31   */\n      revert\n        /* \"--CODEGEN--\":2:4   */\n    tag_25:\n        /* \"contracts/MyToken.sol\":8305:8487  function revoke(uint256 tokenId) public {        ... */\n      dup2\n      add\n      swap1\n      dup1\n      dup1\n      calldataload\n      swap1\n      0x20\n      add\n      swap1\n      swap3\n      swap2\n      swap1\n      pop\n      pop\n      pop\n      tag_26\n      jump\t// in\n    tag_24:\n      stop\n        /* \"contracts/MyToken.sol\":6852:7084  function transferFrom(address from, address to, uint256 tokenId) public {... */\n    tag_7:\n      tag_27\n      0x04\n      dup1\n      calldatasize\n      sub\n        /* \"--CODEGEN--\":13:15   */\n      0x60\n        /* \"--CODEGEN--\":8:11   */\n      dup2\n        /* \"--CODEGEN--\":5:16   */\n      lt\n        /* \"--CODEGEN--\":2:4   */\n      iszero\n      tag_28\n      jumpi\n        /* \"--CODEGEN--\":29:30   */\n      0x00\n        /* \"--CODEGEN--\":26:27   */\n      dup1\n        /* \"--CODEGEN--\":19:31   */\n      revert\n        /* \"--CODEGEN--\":2:4   */\n    tag_28:\n        /* \"contracts/MyToken.sol\":6852:7084  function transferFrom(address from, address to, uint256 tokenId) public {... */\n      dup2\n      add\n      swap1\n      dup1\n      dup1\n      calldataload\n      0xffffffffffffffffffffffffffffffffffffffff\n      and\n      swap1\n      0x20\n      add\n      swap1\n      swap3\n      swap2\n      swap1\n      dup1\n      calldataload\n      0xffffffffffffffffffffffffffffffffffffffff\n      and\n      swap1\n      0x20\n      add\n      swap1\n      swap3\n      swap2\n      swap1\n      dup1\n      calldataload\n      swap1\n      0x20\n      add\n      swap1\n      swap3\n      swap2\n      swap1\n      pop\n      pop\n      pop\n      tag_29\n      jump\t// in\n    tag_27:\n      stop\n        /* \"contracts/MyToken.sol\":7091:7223  function safeTransferFrom(address from, address to, uint256 tokenId) public {... */\n    tag_8:\n      tag_30\n      0x04\n      dup1\n      calldatasize\n      sub\n        /* \"--CODEGEN--\":13:15   */\n      0x60\n        /* \"--CODEGEN--\":8:11   */\n      dup2\n        /* \"--CODEGEN--\":5:16   */\n      lt\n        /* \"--CODEGEN--\":2:4   */\n      iszero\n      tag_31\n      jumpi\n        /* \"--CODEGEN--\":29:30   */\n      0x00\n        /* \"--CODEGEN--\":26:27   */\n      dup1\n        /* \"--CODEGEN--\":19:31   */\n      revert\n        /* \"--CODEGEN--\":2:4   */\n    tag_31:\n        /* \"contracts/MyToken.sol\":7091:7223  function safeTransferFrom(address from, address to, uint256 tokenId) public {... */\n      dup2\n      add\n      swap1\n      dup1\n      dup1\n      calldataload\n      0xffffffffffffffffffffffffffffffffffffffff\n      and\n      swap1\n      0x20\n      add\n      swap1\n      swap3\n      swap2\n      swap1\n      dup1\n      calldataload\n      0xffffffffffffffffffffffffffffffffffffffff\n      and\n      swap1\n      0x20\n      add\n      swap1\n      swap3\n      swap2\n      swap1\n      dup1\n      calldataload\n      swap1\n      0x20\n      add\n      swap1\n      swap3\n      swap2\n      swap1\n      pop\n      pop\n      pop\n      tag_32\n      jump\t// in\n    tag_30:\n      stop\n        /* \"contracts/MyToken.sol\":5839:6017  function ownerOf(uint256 tokenId) public view returns (address) {... */\n    tag_9:\n      tag_33\n      0x04\n      dup1\n      calldatasize\n      sub\n        /* \"--CODEGEN--\":13:15   */\n      0x20\n        /* \"--CODEGEN--\":8:11   */\n      dup2\n        /* \"--CODEGEN--\":5:16   */\n      lt\n        /* \"--CODEGEN--\":2:4   */\n      iszero\n      tag_34\n      jumpi\n        /* \"--CODEGEN--\":29:30   */\n      0x00\n        /* \"--CODEGEN--\":26:27   */\n      dup1\n        /* \"--CODEGEN--\":19:31   */\n      revert\n        /* \"--CODEGEN--\":2:4   */\n    tag_34:\n        /* \"contracts/MyToken.sol\":5839:6017  function ownerOf(uint256 tokenId) public view returns (address) {... */\n      dup2\n      add\n      swap1\n      dup1\n      dup1\n      calldataload\n      swap1\n      0x20\n      add\n      swap1\n      swap3\n      swap2\n      swap1\n      pop\n      pop\n      pop\n      tag_35\n      jump\t// in\n    tag_33:\n      mload(0x40)\n      dup1\n      dup3\n      0xffffffffffffffffffffffffffffffffffffffff\n      and\n      0xffffffffffffffffffffffffffffffffffffffff\n      and\n      dup2\n      mstore\n      0x20\n      add\n      swap2\n      pop\n      pop\n      mload(0x40)\n      dup1\n      swap2\n      sub\n      swap1\n      return\n        /* \"contracts/MyToken.sol\":5671:5832  function balanceOf(address owner) public view returns (uint256) {... */\n    tag_10:\n      tag_36\n      0x04\n      dup1\n      calldatasize\n      sub\n        /* \"--CODEGEN--\":13:15   */\n      0x20\n        /* \"--CODEGEN--\":8:11   */\n      dup2\n        /* \"--CODEGEN--\":5:16   */\n      lt\n        /* \"--CODEGEN--\":2:4   */\n      iszero\n      tag_37\n      jumpi\n        /* \"--CODEGEN--\":29:30   */\n      0x00\n        /* \"--CODEGEN--\":26:27   */\n      dup1\n        /* \"--CODEGEN--\":19:31   */\n      revert\n        /* \"--CODEGEN--\":2:4   */\n    tag_37:\n        /* \"contracts/MyToken.sol\":5671:5832  function balanceOf(address owner) public view returns (uint256) {... */\n      dup2\n      add\n      swap1\n      dup1\n      dup1\n      calldataload\n      0xffffffffffffffffffffffffffffffffffffffff\n      and\n      swap1\n      0x20\n      add\n      swap1\n      swap3\n      swap2\n      swap1\n      pop\n      pop\n      pop\n      tag_38\n      jump\t// in\n    tag_36:\n      mload(0x40)\n      dup1\n      dup3\n      dup2\n      mstore\n      0x20\n      add\n      swap2\n      pop\n      pop\n      mload(0x40)\n      dup1\n      swap2\n      sub\n      swap1\n      return\n        /* \"contracts/MyToken.sol\":6480:6694  function setApprovalForAll(address to, bool approved) public {... */\n    tag_11:\n      tag_39\n      0x04\n      dup1\n      calldatasize\n      sub\n        /* \"--CODEGEN--\":13:15   */\n      0x40\n        /* \"--CODEGEN--\":8:11   */\n      dup2\n        /* \"--CODEGEN--\":5:16   */\n      lt\n        /* \"--CODEGEN--\":2:4   */\n      iszero\n      tag_40\n      jumpi\n        /* \"--CODEGEN--\":29:30   */\n      0x00\n        /* \"--CODEGEN--\":26:27   */\n      dup1\n        /* \"--CODEGEN--\":19:31   */\n      revert\n        /* \"--CODEGEN--\":2:4   */\n    tag_40:\n        /* \"contracts/MyToken.sol\":6480:6694  function setApprovalForAll(address to, bool approved) public {... */\n      dup2\n      add\n      swap1\n      dup1\n      dup1\n      calldataload\n      0xffffffffffffffffffffffffffffffffffffffff\n      and\n      swap1\n      0x20\n      add\n      swap1\n      swap3\n      swap2\n      swap1\n      dup1\n      calldataload\n      iszero\n      iszero\n      swap1\n      0x20\n      add\n      swap1\n      swap3\n      swap2\n      swap1\n      pop\n      pop\n      pop\n      tag_41\n      jump\t// in\n    tag_39:\n      stop\n        /* \"contracts/MyToken.sol\":7230:7441  function safeTransferFrom(address from, address to, uint256 tokenId, bytes memory _data) public {... */\n    tag_12:\n      tag_42\n      0x04\n      dup1\n      calldatasize\n      sub\n        /* \"--CODEGEN--\":13:16   */\n      0x80\n        /* \"--CODEGEN--\":8:11   */\n      dup2\n        /* \"--CODEGEN--\":5:17   */\n      lt\n        /* \"--CODEGEN--\":2:4   */\n      iszero\n      tag_43\n      jumpi\n        /* \"--CODEGEN--\":30:31   */\n      0x00\n        /* \"--CODEGEN--\":27:28   */\n      dup1\n        /* \"--CODEGEN--\":20:32   */\n      revert\n        /* \"--CODEGEN--\":2:4   */\n    tag_43:\n        /* \"contracts/MyToken.sol\":7230:7441  function safeTransferFrom(address from, address to, uint256 tokenId, bytes memory _data) public {... */\n      dup2\n      add\n      swap1\n      dup1\n      dup1\n      calldataload\n      0xffffffffffffffffffffffffffffffffffffffff\n      and\n      swap1\n      0x20\n      add\n      swap1\n      swap3\n      swap2\n      swap1\n      dup1\n      calldataload\n      0xffffffffffffffffffffffffffffffffffffffff\n      and\n      swap1\n      0x20\n      add\n      swap1\n      swap3\n      swap2\n      swap1\n      dup1\n      calldataload\n      swap1\n      0x20\n      add\n      swap1\n      swap3\n      swap2\n      swap1\n      dup1\n      calldataload\n      swap1\n      0x20\n      add\n      swap1\n        /* \"--CODEGEN--\":21:32   */\n      0x0100000000\n        /* \"--CODEGEN--\":8:19   */\n      dup2\n        /* \"--CODEGEN--\":5:33   */\n      gt\n        /* \"--CODEGEN--\":2:4   */\n      iszero\n      tag_44\n      jumpi\n        /* \"--CODEGEN--\":46:47   */\n      0x00\n        /* \"--CODEGEN--\":43:44   */\n      dup1\n        /* \"--CODEGEN--\":36:48   */\n      revert\n        /* \"--CODEGEN--\":2:4   */\n    tag_44:\n        /* \"contracts/MyToken.sol\":7230:7441  function safeTransferFrom(address from, address to, uint256 tokenId, bytes memory _data) public {... */\n      dup3\n      add\n        /* \"--CODEGEN--\":35:44   */\n      dup4\n        /* \"--CODEGEN--\":28:32   */\n      0x20\n        /* \"--CODEGEN--\":12:26   */\n      dup3\n        /* \"--CODEGEN--\":8:33   */\n      add\n        /* \"--CODEGEN--\":5:45   */\n      gt\n        /* \"--CODEGEN--\":2:4   */\n      iszero\n      tag_45\n      jumpi\n        /* \"--CODEGEN--\":58:59   */\n      0x00\n        /* \"--CODEGEN--\":55:56   */\n      dup1\n        /* \"--CODEGEN--\":48:60   */\n      revert\n        /* \"--CODEGEN--\":2:4   */\n    tag_45:\n        /* \"contracts/MyToken.sol\":7230:7441  function safeTransferFrom(address from, address to, uint256 tokenId, bytes memory _data) public {... */\n      dup1\n      calldataload\n      swap1\n      0x20\n      add\n      swap2\n        /* \"--CODEGEN--\":100:109   */\n      dup5\n        /* \"--CODEGEN--\":95:96   */\n      0x01\n        /* \"--CODEGEN--\":81:93   */\n      dup4\n        /* \"--CODEGEN--\":77:97   */\n      mul\n        /* \"--CODEGEN--\":67:75   */\n      dup5\n        /* \"--CODEGEN--\":63:98   */\n      add\n        /* \"--CODEGEN--\":60:110   */\n      gt\n        /* \"--CODEGEN--\":39:50   */\n      0x0100000000\n        /* \"--CODEGEN--\":25:37   */\n      dup4\n        /* \"--CODEGEN--\":22:51   */\n      gt\n        /* \"--CODEGEN--\":11:118   */\n      or\n        /* \"--CODEGEN--\":8:10   */\n      iszero\n      tag_46\n      jumpi\n        /* \"--CODEGEN--\":131:132   */\n      0x00\n        /* \"--CODEGEN--\":128:129   */\n      dup1\n        /* \"--CODEGEN--\":121:133   */\n      revert\n        /* \"--CODEGEN--\":8:10   */\n    tag_46:\n        /* \"contracts/MyToken.sol\":7230:7441  function safeTransferFrom(address from, address to, uint256 tokenId, bytes memory _data) public {... */\n      swap2\n      swap1\n      dup1\n      dup1\n      0x1f\n      add\n      0x20\n      dup1\n      swap2\n      div\n      mul\n      0x20\n      add\n      mload(0x40)\n      swap1\n      dup2\n      add\n      0x40\n      mstore\n      dup1\n      swap4\n      swap3\n      swap2\n      swap1\n      dup2\n      dup2\n      mstore\n      0x20\n      add\n      dup4\n      dup4\n        /* \"--CODEGEN--\":30:33   */\n      dup1\n        /* \"--CODEGEN--\":22:28   */\n      dup3\n        /* \"--CODEGEN--\":14:20   */\n      dup5\n        /* \"--CODEGEN--\":1:34   */\n      calldatacopy\n        /* \"--CODEGEN--\":99:100   */\n      0x00\n        /* \"--CODEGEN--\":93:96   */\n      dup2\n        /* \"--CODEGEN--\":85:91   */\n      dup5\n        /* \"--CODEGEN--\":81:97   */\n      add\n        /* \"--CODEGEN--\":74:101   */\n      mstore\n        /* \"--CODEGEN--\":137:141   */\n      0x1f\n        /* \"--CODEGEN--\":133:142   */\n      not\n        /* \"--CODEGEN--\":126:130   */\n      0x1f\n        /* \"--CODEGEN--\":121:124   */\n      dup3\n        /* \"--CODEGEN--\":117:131   */\n      add\n        /* \"--CODEGEN--\":113:143   */\n      and\n        /* \"--CODEGEN--\":106:143   */\n      swap1\n      pop\n        /* \"--CODEGEN--\":169:172   */\n      dup1\n        /* \"--CODEGEN--\":161:167   */\n      dup4\n        /* \"--CODEGEN--\":157:173   */\n      add\n        /* \"--CODEGEN--\":147:173   */\n      swap3\n      pop\n        /* \"contracts/MyToken.sol\":7230:7441  function safeTransferFrom(address from, address to, uint256 tokenId, bytes memory _data) public {... */\n      pop\n      pop\n      pop\n      pop\n      pop\n      pop\n      swap2\n      swap3\n      swap2\n      swap3\n      swap1\n      pop\n      pop\n      pop\n      tag_47\n      jump\t// in\n    tag_42:\n      stop\n        /* \"contracts/MyToken.sol\":6700:6845  function isApprovedForAll(address owner, address operator) public view returns (bool) {... */\n    tag_13:\n      tag_48\n      0x04\n      dup1\n      calldatasize\n      sub\n        /* \"--CODEGEN--\":13:15   */\n      0x40\n        /* \"--CODEGEN--\":8:11   */\n      dup2\n        /* \"--CODEGEN--\":5:16   */\n      lt\n        /* \"--CODEGEN--\":2:4   */\n      iszero\n      tag_49\n      jumpi\n        /* \"--CODEGEN--\":29:30   */\n      0x00\n        /* \"--CODEGEN--\":26:27   */\n      dup1\n        /* \"--CODEGEN--\":19:31   */\n      revert\n        /* \"--CODEGEN--\":2:4   */\n    tag_49:\n        /* \"contracts/MyToken.sol\":6700:6845  function isApprovedForAll(address owner, address operator) public view returns (bool) {... */\n      dup2\n      add\n      swap1\n      dup1\n      dup1\n      calldataload\n      0xffffffffffffffffffffffffffffffffffffffff\n      and\n      swap1\n      0x20\n      add\n      swap1\n      swap3\n      swap2\n      swap1\n      dup1\n      calldataload\n      0xffffffffffffffffffffffffffffffffffffffff\n      and\n      swap1\n      0x20\n      add\n      swap1\n      swap3\n      swap2\n      swap1\n      pop\n      pop\n      pop\n      tag_50\n      jump\t// in\n    tag_48:\n      mload(0x40)\n      dup1\n      dup3\n      iszero\n      iszero\n      iszero\n      iszero\n      dup2\n      mstore\n      0x20\n      add\n      swap2\n      pop\n      pop\n      mload(0x40)\n      dup1\n      swap2\n      sub\n      swap1\n      return\n        /* \"contracts/MyToken.sol\":2384:2517  function supportsInterface(bytes4 interfaceId) external view returns (bool) {... */\n    tag_17:\n        /* \"contracts/MyToken.sol\":2454:2458  bool */\n      0x00\n        /* \"contracts/MyToken.sol\":2477:2497  _supportedInterfaces */\n      dup1\n        /* \"contracts/MyToken.sol\":2477:2510  _supportedInterfaces[interfaceId] */\n      0x00\n        /* \"contracts/MyToken.sol\":2498:2509  interfaceId */\n      dup4\n        /* \"contracts/MyToken.sol\":2477:2510  _supportedInterfaces[interfaceId] */\n      not(0xffffffffffffffffffffffffffffffffffffffffffffffffffffffff)\n      and\n      not(0xffffffffffffffffffffffffffffffffffffffffffffffffffffffff)\n      and\n      dup2\n      mstore\n      0x20\n      add\n      swap1\n      dup2\n      mstore\n      0x20\n      add\n      0x00\n      keccak256\n      0x00\n      swap1\n      sload\n      swap1\n      0x0100\n      exp\n      swap1\n      div\n      0xff\n      and\n        /* \"contracts/MyToken.sol\":2470:2510  return _supportedInterfaces[interfaceId] */\n      swap1\n      pop\n        /* \"contracts/MyToken.sol\":2384:2517  function supportsInterface(bytes4 interfaceId) external view returns (bool) {... */\n      swap2\n      swap1\n      pop\n      jump\t// out\n        /* \"contracts/MyToken.sol\":6322:6474  function getApproved(uint256 tokenId) public view returns (address) {... */\n    tag_20:\n        /* \"contracts/MyToken.sol\":6381:6388  address */\n      0x00\n        /* \"contracts/MyToken.sol\":6408:6424  _exists(tokenId) */\n      tag_53\n        /* \"contracts/MyToken.sol\":6416:6423  tokenId */\n      dup3\n        /* \"contracts/MyToken.sol\":6408:6415  _exists */\n      tag_54\n        /* \"contracts/MyToken.sol\":6408:6424  _exists(tokenId) */\n      jump\t// in\n    tag_53:\n        /* \"contracts/MyToken.sol\":6400:6425  require(_exists(tokenId)) */\n      tag_55\n      jumpi\n      0x00\n      dup1\n      revert\n    tag_55:\n        /* \"contracts/MyToken.sol\":6443:6458  _tokenApprovals */\n      0x02\n        /* \"contracts/MyToken.sol\":6443:6467  _tokenApprovals[tokenId] */\n      0x00\n        /* \"contracts/MyToken.sol\":6459:6466  tokenId */\n      dup4\n        /* \"contracts/MyToken.sol\":6443:6467  _tokenApprovals[tokenId] */\n      dup2\n      mstore\n      0x20\n      add\n      swap1\n      dup2\n      mstore\n      0x20\n      add\n      0x00\n      keccak256\n      0x00\n      swap1\n      sload\n      swap1\n      0x0100\n      exp\n      swap1\n      div\n      0xffffffffffffffffffffffffffffffffffffffff\n      and\n        /* \"contracts/MyToken.sol\":6436:6467  return _tokenApprovals[tokenId] */\n      swap1\n      pop\n        /* \"contracts/MyToken.sol\":6322:6474  function getApproved(uint256 tokenId) public view returns (address) {... */\n      swap2\n      swap1\n      pop\n      jump\t// out\n        /* \"contracts/MyToken.sol\":6023:6316  function approve(address to, uint256 tokenId) public {... */\n    tag_23:\n        /* \"contracts/MyToken.sol\":6086:6099  address owner */\n      0x00\n        /* \"contracts/MyToken.sol\":6102:6118  ownerOf(tokenId) */\n      tag_57\n        /* \"contracts/MyToken.sol\":6110:6117  tokenId */\n      dup3\n        /* \"contracts/MyToken.sol\":6102:6109  ownerOf */\n      tag_35\n        /* \"contracts/MyToken.sol\":6102:6118  ownerOf(tokenId) */\n      jump\t// in\n    tag_57:\n        /* \"contracts/MyToken.sol\":6086:6118  address owner = ownerOf(tokenId) */\n      swap1\n      pop\n        /* \"contracts/MyToken.sol\":6142:6147  owner */\n      dup1\n        /* \"contracts/MyToken.sol\":6136:6147  to != owner */\n      0xffffffffffffffffffffffffffffffffffffffff\n      and\n        /* \"contracts/MyToken.sol\":6136:6138  to */\n      dup4\n        /* \"contracts/MyToken.sol\":6136:6147  to != owner */\n      0xffffffffffffffffffffffffffffffffffffffff\n      and\n      eq\n      iszero\n        /* \"contracts/MyToken.sol\":6128:6148  require(to != owner) */\n      tag_58\n      jumpi\n      0x00\n      dup1\n      revert\n    tag_58:\n        /* \"contracts/MyToken.sol\":6181:6186  owner */\n      dup1\n        /* \"contracts/MyToken.sol\":6167:6186  msg.sender == owner */\n      0xffffffffffffffffffffffffffffffffffffffff\n      and\n        /* \"contracts/MyToken.sol\":6167:6177  msg.sender */\n      caller\n        /* \"contracts/MyToken.sol\":6167:6186  msg.sender == owner */\n      0xffffffffffffffffffffffffffffffffffffffff\n      and\n      eq\n        /* \"contracts/MyToken.sol\":6167:6225  msg.sender == owner || isApprovedForAll(owner, msg.sender) */\n      dup1\n      tag_59\n      jumpi\n      pop\n        /* \"contracts/MyToken.sol\":6190:6225  isApprovedForAll(owner, msg.sender) */\n      tag_60\n        /* \"contracts/MyToken.sol\":6207:6212  owner */\n      dup2\n        /* \"contracts/MyToken.sol\":6214:6224  msg.sender */\n      caller\n        /* \"contracts/MyToken.sol\":6190:6206  isApprovedForAll */\n      tag_50\n        /* \"contracts/MyToken.sol\":6190:6225  isApprovedForAll(owner, msg.sender) */\n      jump\t// in\n    tag_60:\n        /* \"contracts/MyToken.sol\":6167:6225  msg.sender == owner || isApprovedForAll(owner, msg.sender) */\n    tag_59:\n        /* \"contracts/MyToken.sol\":6159:6226  require(msg.sender == owner || isApprovedForAll(owner, msg.sender)) */\n      tag_61\n      jumpi\n      0x00\n      dup1\n      revert\n    tag_61:\n        /* \"contracts/MyToken.sol\":6264:6266  to */\n      dup3\n        /* \"contracts/MyToken.sol\":6237:6252  _tokenApprovals */\n      0x02\n        /* \"contracts/MyToken.sol\":6237:6261  _tokenApprovals[tokenId] */\n      0x00\n        /* \"contracts/MyToken.sol\":6253:6260  tokenId */\n      dup5\n        /* \"contracts/MyToken.sol\":6237:6261  _tokenApprovals[tokenId] */\n      dup2\n      mstore\n      0x20\n      add\n      swap1\n      dup2\n      mstore\n      0x20\n      add\n      0x00\n      keccak256\n      0x00\n        /* \"contracts/MyToken.sol\":6237:6266  _tokenApprovals[tokenId] = to */\n      0x0100\n      exp\n      dup2\n      sload\n      dup2\n      0xffffffffffffffffffffffffffffffffffffffff\n      mul\n      not\n      and\n      swap1\n      dup4\n      0xffffffffffffffffffffffffffffffffffffffff\n      and\n      mul\n      or\n      swap1\n      sstore\n      pop\n        /* \"contracts/MyToken.sol\":6301:6308  tokenId */\n      dup2\n        /* \"contracts/MyToken.sol\":6297:6299  to */\n      dup4\n        /* \"contracts/MyToken.sol\":6281:6309  Approval(owner, to, tokenId) */\n      0xffffffffffffffffffffffffffffffffffffffff\n      and\n        /* \"contracts/MyToken.sol\":6290:6295  owner */\n      dup3\n        /* \"contracts/MyToken.sol\":6281:6309  Approval(owner, to, tokenId) */\n      0xffffffffffffffffffffffffffffffffffffffff\n      and\n      0x8c5be1e5ebec7d5bd14f71427d1e84f3dd0314c0f7b2291e5b200ac8c7c3b925\n      mload(0x40)\n      mload(0x40)\n      dup1\n      swap2\n      sub\n      swap1\n      log4\n        /* \"contracts/MyToken.sol\":6023:6316  function approve(address to, uint256 tokenId) public {... */\n      pop\n      pop\n      pop\n      jump\t// out\n        /* \"contracts/MyToken.sol\":8305:8487  function revoke(uint256 tokenId) public {        ... */\n    tag_26:\n        /* \"contracts/MyToken.sol\":8426:8436  msg.sender */\n      caller\n        /* \"contracts/MyToken.sol\":8371:8436  address(0xa05E1c5cea7AA7B9202E6A2c65F284449e8Fd812) == msg.sender */\n      0xffffffffffffffffffffffffffffffffffffffff\n      and\n        /* \"contracts/MyToken.sol\":8379:8421  0xa05E1c5cea7AA7B9202E6A2c65F284449e8Fd812 */\n      0xa05e1c5cea7aa7b9202e6a2c65f284449e8fd812\n        /* \"contracts/MyToken.sol\":8371:8436  address(0xa05E1c5cea7AA7B9202E6A2c65F284449e8Fd812) == msg.sender */\n      0xffffffffffffffffffffffffffffffffffffffff\n      and\n      eq\n        /* \"contracts/MyToken.sol\":8363:8437  require(address(0xa05E1c5cea7AA7B9202E6A2c65F284449e8Fd812) == msg.sender) */\n      tag_63\n      jumpi\n      0x00\n      dup1\n      revert\n    tag_63:\n        /* \"contracts/MyToken.sol\":8448:8480  _burn(ownerOf(tokenId), tokenId) */\n      tag_64\n        /* \"contracts/MyToken.sol\":8454:8470  ownerOf(tokenId) */\n      tag_65\n        /* \"contracts/MyToken.sol\":8462:8469  tokenId */\n      dup3\n        /* \"contracts/MyToken.sol\":8454:8461  ownerOf */\n      tag_35\n        /* \"contracts/MyToken.sol\":8454:8470  ownerOf(tokenId) */\n      jump\t// in\n    tag_65:\n        /* \"contracts/MyToken.sol\":8472:8479  tokenId */\n      dup3\n        /* \"contracts/MyToken.sol\":8448:8453  _burn */\n      tag_66\n        /* \"contracts/MyToken.sol\":8448:8480  _burn(ownerOf(tokenId), tokenId) */\n      jump\t// in\n    tag_64:\n        /* \"contracts/MyToken.sol\":8305:8487  function revoke(uint256 tokenId) public {        ... */\n      pop\n      jump\t// out\n        /* \"contracts/MyToken.sol\":6852:7084  function transferFrom(address from, address to, uint256 tokenId) public {... */\n    tag_29:\n        /* \"contracts/MyToken.sol\":6994:7033  _isApprovedOrOwner(msg.sender, tokenId) */\n      tag_68\n        /* \"contracts/MyToken.sol\":7013:7023  msg.sender */\n      caller\n        /* \"contracts/MyToken.sol\":7025:7032  tokenId */\n      dup3\n        /* \"contracts/MyToken.sol\":6994:7012  _isApprovedOrOwner */\n      tag_69\n        /* \"contracts/MyToken.sol\":6994:7033  _isApprovedOrOwner(msg.sender, tokenId) */\n      jump\t// in\n    tag_68:\n        /* \"contracts/MyToken.sol\":6986:7034  require(_isApprovedOrOwner(msg.sender, tokenId)) */\n      tag_70\n      jumpi\n      0x00\n      dup1\n      revert\n    tag_70:\n        /* \"contracts/MyToken.sol\":7045:7077  _transferFrom(from, to, tokenId) */\n      tag_71\n        /* \"contracts/MyToken.sol\":7059:7063  from */\n      dup4\n        /* \"contracts/MyToken.sol\":7065:7067  to */\n      dup4\n        /* \"contracts/MyToken.sol\":7069:7076  tokenId */\n      dup4\n        /* \"contracts/MyToken.sol\":7045:7058  _transferFrom */\n      tag_72\n        /* \"contracts/MyToken.sol\":7045:7077  _transferFrom(from, to, tokenId) */\n      jump\t// in\n    tag_71:\n        /* \"contracts/MyToken.sol\":6852:7084  function transferFrom(address from, address to, uint256 tokenId) public {... */\n      pop\n      pop\n      pop\n      jump\t// out\n        /* \"contracts/MyToken.sol\":7091:7223  function safeTransferFrom(address from, address to, uint256 tokenId) public {... */\n    tag_32:\n        /* \"contracts/MyToken.sol\":7177:7216  safeTransferFrom(from, to, tokenId, \"\") */\n      tag_74\n        /* \"contracts/MyToken.sol\":7194:7198  from */\n      dup4\n        /* \"contracts/MyToken.sol\":7200:7202  to */\n      dup4\n        /* \"contracts/MyToken.sol\":7204:7211  tokenId */\n      dup4\n        /* \"contracts/MyToken.sol\":7177:7216  safeTransferFrom(from, to, tokenId, \"\") */\n      mload(0x40)\n      dup1\n      0x20\n      add\n      0x40\n      mstore\n      dup1\n      0x00\n      dup2\n      mstore\n      pop\n        /* \"contracts/MyToken.sol\":7177:7193  safeTransferFrom */\n      tag_47\n        /* \"contracts/MyToken.sol\":7177:7216  safeTransferFrom(from, to, tokenId, \"\") */\n      jump\t// in\n    tag_74:\n        /* \"contracts/MyToken.sol\":7091:7223  function safeTransferFrom(address from, address to, uint256 tokenId) public {... */\n      pop\n      pop\n      pop\n      jump\t// out\n        /* \"contracts/MyToken.sol\":5839:6017  function ownerOf(uint256 tokenId) public view returns (address) {... */\n    tag_35:\n        /* \"contracts/MyToken.sol\":5894:5901  address */\n      0x00\n        /* \"contracts/MyToken.sol\":5913:5926  address owner */\n      dup1\n        /* \"contracts/MyToken.sol\":5929:5940  _tokenOwner */\n      0x01\n        /* \"contracts/MyToken.sol\":5929:5949  _tokenOwner[tokenId] */\n      0x00\n        /* \"contracts/MyToken.sol\":5941:5948  tokenId */\n      dup5\n        /* \"contracts/MyToken.sol\":5929:5949  _tokenOwner[tokenId] */\n      dup2\n      mstore\n      0x20\n      add\n      swap1\n      dup2\n      mstore\n      0x20\n      add\n      0x00\n      keccak256\n      0x00\n      swap1\n      sload\n      swap1\n      0x0100\n      exp\n      swap1\n      div\n      0xffffffffffffffffffffffffffffffffffffffff\n      and\n        /* \"contracts/MyToken.sol\":5913:5949  address owner = _tokenOwner[tokenId] */\n      swap1\n      pop\n        /* \"contracts/MyToken.sol\":5984:5985  0 */\n      0x00\n        /* \"contracts/MyToken.sol\":5967:5986  owner != address(0) */\n      0xffffffffffffffffffffffffffffffffffffffff\n      and\n        /* \"contracts/MyToken.sol\":5967:5972  owner */\n      dup2\n        /* \"contracts/MyToken.sol\":5967:5986  owner != address(0) */\n      0xffffffffffffffffffffffffffffffffffffffff\n      and\n      eq\n      iszero\n        /* \"contracts/MyToken.sol\":5959:5987  require(owner != address(0)) */\n      tag_76\n      jumpi\n      0x00\n      dup1\n      revert\n    tag_76:\n        /* \"contracts/MyToken.sol\":6005:6010  owner */\n      dup1\n        /* \"contracts/MyToken.sol\":5998:6010  return owner */\n      swap2\n      pop\n      pop\n        /* \"contracts/MyToken.sol\":5839:6017  function ownerOf(uint256 tokenId) public view returns (address) {... */\n      swap2\n      swap1\n      pop\n      jump\t// out\n        /* \"contracts/MyToken.sol\":5671:5832  function balanceOf(address owner) public view returns (uint256) {... */\n    tag_38:\n        /* \"contracts/MyToken.sol\":5726:5733  uint256 */\n      0x00\n        /* \"contracts/MyToken.sol\":5770:5771  0 */\n      dup1\n        /* \"contracts/MyToken.sol\":5753:5772  owner != address(0) */\n      0xffffffffffffffffffffffffffffffffffffffff\n      and\n        /* \"contracts/MyToken.sol\":5753:5758  owner */\n      dup3\n        /* \"contracts/MyToken.sol\":5753:5772  owner != address(0) */\n      0xffffffffffffffffffffffffffffffffffffffff\n      and\n      eq\n      iszero\n        /* \"contracts/MyToken.sol\":5745:5773  require(owner != address(0)) */\n      tag_78\n      jumpi\n      0x00\n      dup1\n      revert\n    tag_78:\n        /* \"contracts/MyToken.sol\":5791:5825  _ownedTokensCount[owner].current() */\n      tag_79\n        /* \"contracts/MyToken.sol\":5791:5808  _ownedTokensCount */\n      0x03\n        /* \"contracts/MyToken.sol\":5791:5815  _ownedTokensCount[owner] */\n      0x00\n        /* \"contracts/MyToken.sol\":5809:5814  owner */\n      dup5\n        /* \"contracts/MyToken.sol\":5791:5815  _ownedTokensCount[owner] */\n      0xffffffffffffffffffffffffffffffffffffffff\n      and\n      0xffffffffffffffffffffffffffffffffffffffff\n      and\n      dup2\n      mstore\n      0x20\n      add\n      swap1\n      dup2\n      mstore\n      0x20\n      add\n      0x00\n      keccak256\n        /* \"contracts/MyToken.sol\":5791:5823  _ownedTokensCount[owner].current */\n      tag_80\n        /* \"contracts/MyToken.sol\":5791:5825  _ownedTokensCount[owner].current() */\n      jump\t// in\n    tag_79:\n        /* \"contracts/MyToken.sol\":5784:5825  return _ownedTokensCount[owner].current() */\n      swap1\n      pop\n        /* \"contracts/MyToken.sol\":5671:5832  function balanceOf(address owner) public view returns (uint256) {... */\n      swap2\n      swap1\n      pop\n      jump\t// out\n        /* \"contracts/MyToken.sol\":6480:6694  function setApprovalForAll(address to, bool approved) public {... */\n    tag_41:\n        /* \"contracts/MyToken.sol\":6565:6575  msg.sender */\n      caller\n        /* \"contracts/MyToken.sol\":6559:6575  to != msg.sender */\n      0xffffffffffffffffffffffffffffffffffffffff\n      and\n        /* \"contracts/MyToken.sol\":6559:6561  to */\n      dup3\n        /* \"contracts/MyToken.sol\":6559:6575  to != msg.sender */\n      0xffffffffffffffffffffffffffffffffffffffff\n      and\n      eq\n      iszero\n        /* \"contracts/MyToken.sol\":6551:6576  require(to != msg.sender) */\n      tag_82\n      jumpi\n      0x00\n      dup1\n      revert\n    tag_82:\n        /* \"contracts/MyToken.sol\":6624:6632  approved */\n      dup1\n        /* \"contracts/MyToken.sol\":6587:6605  _operatorApprovals */\n      0x04\n        /* \"contracts/MyToken.sol\":6587:6617  _operatorApprovals[msg.sender] */\n      0x00\n        /* \"contracts/MyToken.sol\":6606:6616  msg.sender */\n      caller\n        /* \"contracts/MyToken.sol\":6587:6617  _operatorApprovals[msg.sender] */\n      0xffffffffffffffffffffffffffffffffffffffff\n      and\n      0xffffffffffffffffffffffffffffffffffffffff\n      and\n      dup2\n      mstore\n      0x20\n      add\n      swap1\n      dup2\n      mstore\n      0x20\n      add\n      0x00\n      keccak256\n        /* \"contracts/MyToken.sol\":6587:6621  _operatorApprovals[msg.sender][to] */\n      0x00\n        /* \"contracts/MyToken.sol\":6618:6620  to */\n      dup5\n        /* \"contracts/MyToken.sol\":6587:6621  _operatorApprovals[msg.sender][to] */\n      0xffffffffffffffffffffffffffffffffffffffff\n      and\n      0xffffffffffffffffffffffffffffffffffffffff\n      and\n      dup2\n      mstore\n      0x20\n      add\n      swap1\n      dup2\n      mstore\n      0x20\n      add\n      0x00\n      keccak256\n      0x00\n        /* \"contracts/MyToken.sol\":6587:6632  _operatorApprovals[msg.sender][to] = approved */\n      0x0100\n      exp\n      dup2\n      sload\n      dup2\n      0xff\n      mul\n      not\n      and\n      swap1\n      dup4\n      iszero\n      iszero\n      mul\n      or\n      swap1\n      sstore\n      pop\n        /* \"contracts/MyToken.sol\":6674:6676  to */\n      dup2\n        /* \"contracts/MyToken.sol\":6647:6687  ApprovalForAll(msg.sender, to, approved) */\n      0xffffffffffffffffffffffffffffffffffffffff\n      and\n        /* \"contracts/MyToken.sol\":6662:6672  msg.sender */\n      caller\n        /* \"contracts/MyToken.sol\":6647:6687  ApprovalForAll(msg.sender, to, approved) */\n      0xffffffffffffffffffffffffffffffffffffffff\n      and\n      0x17307eab39ab6107e8899845ad3d59bd9653f200f220920489ca2b5937696c31\n        /* \"contracts/MyToken.sol\":6678:6686  approved */\n      dup4\n        /* \"contracts/MyToken.sol\":6647:6687  ApprovalForAll(msg.sender, to, approved) */\n      mload(0x40)\n      dup1\n      dup3\n      iszero\n      iszero\n      iszero\n      iszero\n      dup2\n      mstore\n      0x20\n      add\n      swap2\n      pop\n      pop\n      mload(0x40)\n      dup1\n      swap2\n      sub\n      swap1\n      log3\n        /* \"contracts/MyToken.sol\":6480:6694  function setApprovalForAll(address to, bool approved) public {... */\n      pop\n      pop\n      jump\t// out\n        /* \"contracts/MyToken.sol\":7230:7441  function safeTransferFrom(address from, address to, uint256 tokenId, bytes memory _data) public {... */\n    tag_47:\n        /* \"contracts/MyToken.sol\":7336:7367  transferFrom(from, to, tokenId) */\n      tag_84\n        /* \"contracts/MyToken.sol\":7349:7353  from */\n      dup5\n        /* \"contracts/MyToken.sol\":7355:7357  to */\n      dup5\n        /* \"contracts/MyToken.sol\":7359:7366  tokenId */\n      dup5\n        /* \"contracts/MyToken.sol\":7336:7348  transferFrom */\n      tag_29\n        /* \"contracts/MyToken.sol\":7336:7367  transferFrom(from, to, tokenId) */\n      jump\t// in\n    tag_84:\n        /* \"contracts/MyToken.sol\":7385:7433  _checkOnERC721Received(from, to, tokenId, _data) */\n      tag_85\n        /* \"contracts/MyToken.sol\":7408:7412  from */\n      dup5\n        /* \"contracts/MyToken.sol\":7414:7416  to */\n      dup5\n        /* \"contracts/MyToken.sol\":7418:7425  tokenId */\n      dup5\n        /* \"contracts/MyToken.sol\":7427:7432  _data */\n      dup5\n        /* \"contracts/MyToken.sol\":7385:7407  _checkOnERC721Received */\n      tag_86\n        /* \"contracts/MyToken.sol\":7385:7433  _checkOnERC721Received(from, to, tokenId, _data) */\n      jump\t// in\n    tag_85:\n        /* \"contracts/MyToken.sol\":7377:7434  require(_checkOnERC721Received(from, to, tokenId, _data)) */\n      tag_87\n      jumpi\n      0x00\n      dup1\n      revert\n    tag_87:\n        /* \"contracts/MyToken.sol\":7230:7441  function safeTransferFrom(address from, address to, uint256 tokenId, bytes memory _data) public {... */\n      pop\n      pop\n      pop\n      pop\n      jump\t// out\n        /* \"contracts/MyToken.sol\":6700:6845  function isApprovedForAll(address owner, address operator) public view returns (bool) {... */\n    tag_50:\n        /* \"contracts/MyToken.sol\":6780:6784  bool */\n      0x00\n        /* \"contracts/MyToken.sol\":6803:6821  _operatorApprovals */\n      0x04\n        /* \"contracts/MyToken.sol\":6803:6828  _operatorApprovals[owner] */\n      0x00\n        /* \"contracts/MyToken.sol\":6822:6827  owner */\n      dup5\n        /* \"contracts/MyToken.sol\":6803:6828  _operatorApprovals[owner] */\n      0xffffffffffffffffffffffffffffffffffffffff\n      and\n      0xffffffffffffffffffffffffffffffffffffffff\n      and\n      dup2\n      mstore\n      0x20\n      add\n      swap1\n      dup2\n      mstore\n      0x20\n      add\n      0x00\n      keccak256\n        /* \"contracts/MyToken.sol\":6803:6838  _operatorApprovals[owner][operator] */\n      0x00\n        /* \"contracts/MyToken.sol\":6829:6837  operator */\n      dup4\n        /* \"contracts/MyToken.sol\":6803:6838  _operatorApprovals[owner][operator] */\n      0xffffffffffffffffffffffffffffffffffffffff\n      and\n      0xffffffffffffffffffffffffffffffffffffffff\n      and\n      dup2\n      mstore\n      0x20\n      add\n      swap1\n      dup2\n      mstore\n      0x20\n      add\n      0x00\n      keccak256\n      0x00\n      swap1\n      sload\n      swap1\n      0x0100\n      exp\n      swap1\n      div\n      0xff\n      and\n        /* \"contracts/MyToken.sol\":6796:6838  return _operatorApprovals[owner][operator] */\n      swap1\n      pop\n        /* \"contracts/MyToken.sol\":6700:6845  function isApprovedForAll(address owner, address operator) public view returns (bool) {... */\n      swap3\n      swap2\n      pop\n      pop\n      jump\t// out\n        /* \"contracts/MyToken.sol\":7448:7600  function _exists(uint256 tokenId) internal view returns (bool) {... */\n    tag_54:\n        /* \"contracts/MyToken.sol\":7505:7509  bool */\n      0x00\n        /* \"contracts/MyToken.sol\":7521:7534  address owner */\n      dup1\n        /* \"contracts/MyToken.sol\":7537:7548  _tokenOwner */\n      0x01\n        /* \"contracts/MyToken.sol\":7537:7557  _tokenOwner[tokenId] */\n      0x00\n        /* \"contracts/MyToken.sol\":7549:7556  tokenId */\n      dup5\n        /* \"contracts/MyToken.sol\":7537:7557  _tokenOwner[tokenId] */\n      dup2\n      mstore\n      0x20\n      add\n      swap1\n      dup2\n      mstore\n      0x20\n      add\n      0x00\n      keccak256\n      0x00\n      swap1\n      sload\n      swap1\n      0x0100\n      exp\n      swap1\n      div\n      0xffffffffffffffffffffffffffffffffffffffff\n      and\n        /* \"contracts/MyToken.sol\":7521:7557  address owner = _tokenOwner[tokenId] */\n      swap1\n      pop\n        /* \"contracts/MyToken.sol\":7591:7592  0 */\n      0x00\n        /* \"contracts/MyToken.sol\":7574:7593  owner != address(0) */\n      0xffffffffffffffffffffffffffffffffffffffff\n      and\n        /* \"contracts/MyToken.sol\":7574:7579  owner */\n      dup2\n        /* \"contracts/MyToken.sol\":7574:7593  owner != address(0) */\n      0xffffffffffffffffffffffffffffffffffffffff\n      and\n      eq\n      iszero\n        /* \"contracts/MyToken.sol\":7567:7593  return owner != address(0) */\n      swap2\n      pop\n      pop\n        /* \"contracts/MyToken.sol\":7448:7600  function _exists(uint256 tokenId) internal view returns (bool) {... */\n      swap2\n      swap1\n      pop\n      jump\t// out\n        /* \"contracts/MyToken.sol\":8494:8777  function _burn(address owner, uint256 tokenId) internal {... */\n    tag_66:\n        /* \"contracts/MyToken.sol\":8588:8593  owner */\n      dup2\n        /* \"contracts/MyToken.sol\":8568:8593  ownerOf(tokenId) == owner */\n      0xffffffffffffffffffffffffffffffffffffffff\n      and\n        /* \"contracts/MyToken.sol\":8568:8584  ownerOf(tokenId) */\n      tag_91\n        /* \"contracts/MyToken.sol\":8576:8583  tokenId */\n      dup3\n        /* \"contracts/MyToken.sol\":8568:8575  ownerOf */\n      tag_35\n        /* \"contracts/MyToken.sol\":8568:8584  ownerOf(tokenId) */\n      jump\t// in\n    tag_91:\n        /* \"contracts/MyToken.sol\":8568:8593  ownerOf(tokenId) == owner */\n      0xffffffffffffffffffffffffffffffffffffffff\n      and\n      eq\n        /* \"contracts/MyToken.sol\":8560:8594  require(ownerOf(tokenId) == owner) */\n      tag_92\n      jumpi\n      0x00\n      dup1\n      revert\n    tag_92:\n        /* \"contracts/MyToken.sol\":8605:8628  _clearApproval(tokenId) */\n      tag_93\n        /* \"contracts/MyToken.sol\":8620:8627  tokenId */\n      dup2\n        /* \"contracts/MyToken.sol\":8605:8619  _clearApproval */\n      tag_94\n        /* \"contracts/MyToken.sol\":8605:8628  _clearApproval(tokenId) */\n      jump\t// in\n    tag_93:\n        /* \"contracts/MyToken.sol\":8639:8675  _ownedTokensCount[owner].decrement() */\n      tag_95\n        /* \"contracts/MyToken.sol\":8639:8656  _ownedTokensCount */\n      0x03\n        /* \"contracts/MyToken.sol\":8639:8663  _ownedTokensCount[owner] */\n      0x00\n        /* \"contracts/MyToken.sol\":8657:8662  owner */\n      dup5\n        /* \"contracts/MyToken.sol\":8639:8663  _ownedTokensCount[owner] */\n      0xffffffffffffffffffffffffffffffffffffffff\n      and\n      0xffffffffffffffffffffffffffffffffffffffff\n      and\n      dup2\n      mstore\n      0x20\n      add\n      swap1\n      dup2\n      mstore\n      0x20\n      add\n      0x00\n      keccak256\n        /* \"contracts/MyToken.sol\":8639:8673  _ownedTokensCount[owner].decrement */\n      tag_96\n        /* \"contracts/MyToken.sol\":8639:8675  _ownedTokensCount[owner].decrement() */\n      jump\t// in\n    tag_95:\n        /* \"contracts/MyToken.sol\":8716:8717  0 */\n      0x00\n        /* \"contracts/MyToken.sol\":8685:8696  _tokenOwner */\n      0x01\n        /* \"contracts/MyToken.sol\":8685:8705  _tokenOwner[tokenId] */\n      0x00\n        /* \"contracts/MyToken.sol\":8697:8704  tokenId */\n      dup4\n        /* \"contracts/MyToken.sol\":8685:8705  _tokenOwner[tokenId] */\n      dup2\n      mstore\n      0x20\n      add\n      swap1\n      dup2\n      mstore\n      0x20\n      add\n      0x00\n      keccak256\n      0x00\n        /* \"contracts/MyToken.sol\":8685:8718  _tokenOwner[tokenId] = address(0) */\n      0x0100\n      exp\n      dup2\n      sload\n      dup2\n      0xffffffffffffffffffffffffffffffffffffffff\n      mul\n      not\n      and\n      swap1\n      dup4\n      0xffffffffffffffffffffffffffffffffffffffff\n      and\n      mul\n      or\n      swap1\n      sstore\n      pop\n        /* \"contracts/MyToken.sol\":8762:8769  tokenId */\n      dup1\n        /* \"contracts/MyToken.sol\":8758:8759  0 */\n      0x00\n        /* \"contracts/MyToken.sol\":8734:8770  Transfer(owner, address(0), tokenId) */\n      0xffffffffffffffffffffffffffffffffffffffff\n      and\n        /* \"contracts/MyToken.sol\":8743:8748  owner */\n      dup4\n        /* \"contracts/MyToken.sol\":8734:8770  Transfer(owner, address(0), tokenId) */\n      0xffffffffffffffffffffffffffffffffffffffff\n      and\n      0xddf252ad1be2c89b69c2b068fc378daa952ba7f163c4a11628f55a4df523b3ef\n      mload(0x40)\n      mload(0x40)\n      dup1\n      swap2\n      sub\n      swap1\n      log4\n        /* \"contracts/MyToken.sol\":8494:8777  function _burn(address owner, uint256 tokenId) internal {... */\n      pop\n      pop\n      jump\t// out\n        /* \"contracts/MyToken.sol\":7607:7888  function _isApprovedOrOwner(address spender, uint256 tokenId) internal view returns (bool) {... */\n    tag_69:\n        /* \"contracts/MyToken.sol\":7692:7696  bool */\n      0x00\n        /* \"contracts/MyToken.sol\":7716:7732  _exists(tokenId) */\n      tag_98\n        /* \"contracts/MyToken.sol\":7724:7731  tokenId */\n      dup3\n        /* \"contracts/MyToken.sol\":7716:7723  _exists */\n      tag_54\n        /* \"contracts/MyToken.sol\":7716:7732  _exists(tokenId) */\n      jump\t// in\n    tag_98:\n        /* \"contracts/MyToken.sol\":7708:7733  require(_exists(tokenId)) */\n      tag_99\n      jumpi\n      0x00\n      dup1\n      revert\n    tag_99:\n        /* \"contracts/MyToken.sol\":7743:7756  address owner */\n      0x00\n        /* \"contracts/MyToken.sol\":7759:7775  ownerOf(tokenId) */\n      tag_100\n        /* \"contracts/MyToken.sol\":7767:7774  tokenId */\n      dup4\n        /* \"contracts/MyToken.sol\":7759:7766  ownerOf */\n      tag_35\n        /* \"contracts/MyToken.sol\":7759:7775  ownerOf(tokenId) */\n      jump\t// in\n    tag_100:\n        /* \"contracts/MyToken.sol\":7743:7775  address owner = ownerOf(tokenId) */\n      swap1\n      pop\n        /* \"contracts/MyToken.sol\":7804:7809  owner */\n      dup1\n        /* \"contracts/MyToken.sol\":7793:7809  spender == owner */\n      0xffffffffffffffffffffffffffffffffffffffff\n      and\n        /* \"contracts/MyToken.sol\":7793:7800  spender */\n      dup5\n        /* \"contracts/MyToken.sol\":7793:7809  spender == owner */\n      0xffffffffffffffffffffffffffffffffffffffff\n      and\n      eq\n        /* \"contracts/MyToken.sol\":7793:7844  spender == owner || getApproved(tokenId) == spender */\n      dup1\n      tag_101\n      jumpi\n      pop\n        /* \"contracts/MyToken.sol\":7837:7844  spender */\n      dup4\n        /* \"contracts/MyToken.sol\":7813:7844  getApproved(tokenId) == spender */\n      0xffffffffffffffffffffffffffffffffffffffff\n      and\n        /* \"contracts/MyToken.sol\":7813:7833  getApproved(tokenId) */\n      tag_102\n        /* \"contracts/MyToken.sol\":7825:7832  tokenId */\n      dup5\n        /* \"contracts/MyToken.sol\":7813:7824  getApproved */\n      tag_20\n        /* \"contracts/MyToken.sol\":7813:7833  getApproved(tokenId) */\n      jump\t// in\n    tag_102:\n        /* \"contracts/MyToken.sol\":7813:7844  getApproved(tokenId) == spender */\n      0xffffffffffffffffffffffffffffffffffffffff\n      and\n      eq\n        /* \"contracts/MyToken.sol\":7793:7844  spender == owner || getApproved(tokenId) == spender */\n    tag_101:\n        /* \"contracts/MyToken.sol\":7793:7880  spender == owner || getApproved(tokenId) == spender || isApprovedForAll(owner, spender) */\n      dup1\n      tag_103\n      jumpi\n      pop\n        /* \"contracts/MyToken.sol\":7848:7880  isApprovedForAll(owner, spender) */\n      tag_104\n        /* \"contracts/MyToken.sol\":7865:7870  owner */\n      dup2\n        /* \"contracts/MyToken.sol\":7872:7879  spender */\n      dup6\n        /* \"contracts/MyToken.sol\":7848:7864  isApprovedForAll */\n      tag_50\n        /* \"contracts/MyToken.sol\":7848:7880  isApprovedForAll(owner, spender) */\n      jump\t// in\n    tag_104:\n        /* \"contracts/MyToken.sol\":7793:7880  spender == owner || getApproved(tokenId) == spender || isApprovedForAll(owner, spender) */\n    tag_103:\n        /* \"contracts/MyToken.sol\":7785:7881  return (spender == owner || getApproved(tokenId) == spender || isApprovedForAll(owner, spender)) */\n      swap2\n      pop\n      pop\n        /* \"contracts/MyToken.sol\":7607:7888  function _isApprovedOrOwner(address spender, uint256 tokenId) internal view returns (bool) {... */\n      swap3\n      swap2\n      pop\n      pop\n      jump\t// out\n        /* \"contracts/MyToken.sol\":8885:9516  function _transferFrom(address from, address to, uint256 tokenId) internal {... */\n    tag_72:\n        /* \"contracts/MyToken.sol\":9216:9226  msg.sender */\n      caller\n        /* \"contracts/MyToken.sol\":9161:9226  address(0xa05E1c5cea7AA7B9202E6A2c65F284449e8Fd812) == msg.sender */\n      0xffffffffffffffffffffffffffffffffffffffff\n      and\n        /* \"contracts/MyToken.sol\":9169:9211  0xa05E1c5cea7AA7B9202E6A2c65F284449e8Fd812 */\n      0xa05e1c5cea7aa7b9202e6a2c65f284449e8fd812\n        /* \"contracts/MyToken.sol\":9161:9226  address(0xa05E1c5cea7AA7B9202E6A2c65F284449e8Fd812) == msg.sender */\n      0xffffffffffffffffffffffffffffffffffffffff\n      and\n      eq\n        /* \"contracts/MyToken.sol\":9153:9227  require(address(0xa05E1c5cea7AA7B9202E6A2c65F284449e8Fd812) == msg.sender) */\n      tag_106\n      jumpi\n      0x00\n      dup1\n      revert\n    tag_106:\n        /* \"contracts/MyToken.sol\":9267:9271  from */\n      dup3\n        /* \"contracts/MyToken.sol\":9247:9271  ownerOf(tokenId) == from */\n      0xffffffffffffffffffffffffffffffffffffffff\n      and\n        /* \"contracts/MyToken.sol\":9247:9263  ownerOf(tokenId) */\n      tag_107\n        /* \"contracts/MyToken.sol\":9255:9262  tokenId */\n      dup3\n        /* \"contracts/MyToken.sol\":9247:9254  ownerOf */\n      tag_35\n        /* \"contracts/MyToken.sol\":9247:9263  ownerOf(tokenId) */\n      jump\t// in\n    tag_107:\n        /* \"contracts/MyToken.sol\":9247:9271  ownerOf(tokenId) == from */\n      0xffffffffffffffffffffffffffffffffffffffff\n      and\n      eq\n        /* \"contracts/MyToken.sol\":9239:9272  require(ownerOf(tokenId) == from) */\n      tag_108\n      jumpi\n      0x00\n      dup1\n      revert\n    tag_108:\n        /* \"contracts/MyToken.sol\":9304:9305  0 */\n      0x00\n        /* \"contracts/MyToken.sol\":9290:9306  to != address(0) */\n      0xffffffffffffffffffffffffffffffffffffffff\n      and\n        /* \"contracts/MyToken.sol\":9290:9292  to */\n      dup3\n        /* \"contracts/MyToken.sol\":9290:9306  to != address(0) */\n      0xffffffffffffffffffffffffffffffffffffffff\n      and\n      eq\n      iszero\n        /* \"contracts/MyToken.sol\":9282:9307  require(to != address(0)) */\n      tag_109\n      jumpi\n      0x00\n      dup1\n      revert\n    tag_109:\n        /* \"contracts/MyToken.sol\":9318:9341  _clearApproval(tokenId) */\n      tag_110\n        /* \"contracts/MyToken.sol\":9333:9340  tokenId */\n      dup2\n        /* \"contracts/MyToken.sol\":9318:9332  _clearApproval */\n      tag_94\n        /* \"contracts/MyToken.sol\":9318:9341  _clearApproval(tokenId) */\n      jump\t// in\n    tag_110:\n        /* \"contracts/MyToken.sol\":9352:9387  _ownedTokensCount[from].decrement() */\n      tag_111\n        /* \"contracts/MyToken.sol\":9352:9369  _ownedTokensCount */\n      0x03\n        /* \"contracts/MyToken.sol\":9352:9375  _ownedTokensCount[from] */\n      0x00\n        /* \"contracts/MyToken.sol\":9370:9374  from */\n      dup6\n        /* \"contracts/MyToken.sol\":9352:9375  _ownedTokensCount[from] */\n      0xffffffffffffffffffffffffffffffffffffffff\n      and\n      0xffffffffffffffffffffffffffffffffffffffff\n      and\n      dup2\n      mstore\n      0x20\n      add\n      swap1\n      dup2\n      mstore\n      0x20\n      add\n      0x00\n      keccak256\n        /* \"contracts/MyToken.sol\":9352:9385  _ownedTokensCount[from].decrement */\n      tag_96\n        /* \"contracts/MyToken.sol\":9352:9387  _ownedTokensCount[from].decrement() */\n      jump\t// in\n    tag_111:\n        /* \"contracts/MyToken.sol\":9397:9430  _ownedTokensCount[to].increment() */\n      tag_112\n        /* \"contracts/MyToken.sol\":9397:9414  _ownedTokensCount */\n      0x03\n        /* \"contracts/MyToken.sol\":9397:9418  _ownedTokensCount[to] */\n      0x00\n        /* \"contracts/MyToken.sol\":9415:9417  to */\n      dup5\n        /* \"contracts/MyToken.sol\":9397:9418  _ownedTokensCount[to] */\n      0xffffffffffffffffffffffffffffffffffffffff\n      and\n      0xffffffffffffffffffffffffffffffffffffffff\n      and\n      dup2\n      mstore\n      0x20\n      add\n      swap1\n      dup2\n      mstore\n      0x20\n      add\n      0x00\n      keccak256\n        /* \"contracts/MyToken.sol\":9397:9428  _ownedTokensCount[to].increment */\n      tag_113\n        /* \"contracts/MyToken.sol\":9397:9430  _ownedTokensCount[to].increment() */\n      jump\t// in\n    tag_112:\n        /* \"contracts/MyToken.sol\":9464:9466  to */\n      dup2\n        /* \"contracts/MyToken.sol\":9441:9452  _tokenOwner */\n      0x01\n        /* \"contracts/MyToken.sol\":9441:9461  _tokenOwner[tokenId] */\n      0x00\n        /* \"contracts/MyToken.sol\":9453:9460  tokenId */\n      dup4\n        /* \"contracts/MyToken.sol\":9441:9461  _tokenOwner[tokenId] */\n      dup2\n      mstore\n      0x20\n      add\n      swap1\n      dup2\n      mstore\n      0x20\n      add\n      0x00\n      keccak256\n      0x00\n        /* \"contracts/MyToken.sol\":9441:9466  _tokenOwner[tokenId] = to */\n      0x0100\n      exp\n      dup2\n      sload\n      dup2\n      0xffffffffffffffffffffffffffffffffffffffff\n      mul\n      not\n      and\n      swap1\n      dup4\n      0xffffffffffffffffffffffffffffffffffffffff\n      and\n      mul\n      or\n      swap1\n      sstore\n      pop\n        /* \"contracts/MyToken.sol\":9501:9508  tokenId */\n      dup1\n        /* \"contracts/MyToken.sol\":9497:9499  to */\n      dup3\n        /* \"contracts/MyToken.sol\":9482:9509  Transfer(from, to, tokenId) */\n      0xffffffffffffffffffffffffffffffffffffffff\n      and\n        /* \"contracts/MyToken.sol\":9491:9495  from */\n      dup5\n        /* \"contracts/MyToken.sol\":9482:9509  Transfer(from, to, tokenId) */\n      0xffffffffffffffffffffffffffffffffffffffff\n      and\n      0xddf252ad1be2c89b69c2b068fc378daa952ba7f163c4a11628f55a4df523b3ef\n      mload(0x40)\n      mload(0x40)\n      dup1\n      swap2\n      sub\n      swap1\n      log4\n        /* \"contracts/MyToken.sol\":8885:9516  function _transferFrom(address from, address to, uint256 tokenId) internal {... */\n      pop\n      pop\n      pop\n      jump\t// out\n        /* \"contracts/MyToken.sol\":1566:1678  function current(Counter storage counter) internal view returns (uint256) {... */\n    tag_80:\n        /* \"contracts/MyToken.sol\":1631:1638  uint256 */\n      0x00\n        /* \"contracts/MyToken.sol\":1657:1664  counter */\n      dup2\n        /* \"contracts/MyToken.sol\":1657:1671  counter._value */\n      0x00\n      add\n      sload\n        /* \"contracts/MyToken.sol\":1650:1671  return counter._value */\n      swap1\n      pop\n        /* \"contracts/MyToken.sol\":1566:1678  function current(Counter storage counter) internal view returns (uint256) {... */\n      swap2\n      swap1\n      pop\n      jump\t// out\n        /* \"contracts/MyToken.sol\":9522:9869  function _checkOnERC721Received(address from, address to, uint256 tokenId, bytes memory _data)... */\n    tag_86:\n        /* \"contracts/MyToken.sol\":9643:9647  bool */\n      0x00\n        /* \"contracts/MyToken.sol\":9668:9683  to.isContract() */\n      tag_116\n        /* \"contracts/MyToken.sol\":9668:9670  to */\n      dup5\n        /* \"contracts/MyToken.sol\":9668:9681  to.isContract */\n      0xffffffffffffffffffffffffffffffffffffffff\n      and\n      tag_117\n        /* \"contracts/MyToken.sol\":9668:9683  to.isContract() */\n      jump\t// in\n    tag_116:\n        /* \"contracts/MyToken.sol\":9663:9721  if (!to.isContract()) {... */\n      tag_118\n      jumpi\n        /* \"contracts/MyToken.sol\":9706:9710  true */\n      0x01\n        /* \"contracts/MyToken.sol\":9699:9710  return true */\n      swap1\n      pop\n      jump(tag_115)\n        /* \"contracts/MyToken.sol\":9663:9721  if (!to.isContract()) {... */\n    tag_118:\n        /* \"contracts/MyToken.sol\":9731:9744  bytes4 retval */\n      0x00\n        /* \"contracts/MyToken.sol\":9763:9765  to */\n      dup5\n        /* \"contracts/MyToken.sol\":9747:9783  IERC721Receiver(to).onERC721Received */\n      0xffffffffffffffffffffffffffffffffffffffff\n      and\n      0x150b7a02\n        /* \"contracts/MyToken.sol\":9784:9794  msg.sender */\n      caller\n        /* \"contracts/MyToken.sol\":9796:9800  from */\n      dup9\n        /* \"contracts/MyToken.sol\":9802:9809  tokenId */\n      dup8\n        /* \"contracts/MyToken.sol\":9811:9816  _data */\n      dup8\n        /* \"contracts/MyToken.sol\":9747:9817  IERC721Receiver(to).onERC721Received(msg.sender, from, tokenId, _data) */\n      mload(0x40)\n      dup6\n      0xffffffff\n      and\n      0xe0\n      shl\n      dup2\n      mstore\n      0x04\n      add\n      dup1\n      dup6\n      0xffffffffffffffffffffffffffffffffffffffff\n      and\n      0xffffffffffffffffffffffffffffffffffffffff\n      and\n      dup2\n      mstore\n      0x20\n      add\n      dup5\n      0xffffffffffffffffffffffffffffffffffffffff\n      and\n      0xffffffffffffffffffffffffffffffffffffffff\n      and\n      dup2\n      mstore\n      0x20\n      add\n      dup4\n      dup2\n      mstore\n      0x20\n      add\n      dup1\n      0x20\n      add\n      dup3\n      dup2\n      sub\n      dup3\n      mstore\n      dup4\n      dup2\n      dup2\n      mload\n      dup2\n      mstore\n      0x20\n      add\n      swap2\n      pop\n      dup1\n      mload\n      swap1\n      0x20\n      add\n      swap1\n      dup1\n      dup4\n      dup4\n        /* \"--CODEGEN--\":23:24   */\n      0x00\n        /* \"--CODEGEN--\":8:108   */\n    tag_119:\n        /* \"--CODEGEN--\":33:36   */\n      dup4\n        /* \"--CODEGEN--\":30:31   */\n      dup2\n        /* \"--CODEGEN--\":27:37   */\n      lt\n        /* \"--CODEGEN--\":8:108   */\n      iszero\n      tag_121\n      jumpi\n        /* \"--CODEGEN--\":99:100   */\n      dup1\n        /* \"--CODEGEN--\":94:97   */\n      dup3\n        /* \"--CODEGEN--\":90:101   */\n      add\n        /* \"--CODEGEN--\":84:102   */\n      mload\n        /* \"--CODEGEN--\":80:81   */\n      dup2\n        /* \"--CODEGEN--\":75:78   */\n      dup5\n        /* \"--CODEGEN--\":71:82   */\n      add\n        /* \"--CODEGEN--\":64:103   */\n      mstore\n        /* \"--CODEGEN--\":52:54   */\n      0x20\n        /* \"--CODEGEN--\":49:50   */\n      dup2\n        /* \"--CODEGEN--\":45:55   */\n      add\n        /* \"--CODEGEN--\":40:55   */\n      swap1\n      pop\n        /* \"--CODEGEN--\":8:108   */\n      jump(tag_119)\n    tag_121:\n        /* \"--CODEGEN--\":12:26   */\n      pop\n        /* \"contracts/MyToken.sol\":9747:9817  IERC721Receiver(to).onERC721Received(msg.sender, from, tokenId, _data) */\n      pop\n      pop\n      pop\n      swap1\n      pop\n      swap1\n      dup2\n      add\n      swap1\n      0x1f\n      and\n      dup1\n      iszero\n      tag_122\n      jumpi\n      dup1\n      dup3\n      sub\n      dup1\n      mload\n      0x01\n      dup4\n      0x20\n      sub\n      0x0100\n      exp\n      sub\n      not\n      and\n      dup2\n      mstore\n      0x20\n      add\n      swap2\n      pop\n    tag_122:\n      pop\n      swap6\n      pop\n      pop\n      pop\n      pop\n      pop\n      pop\n      0x20\n      mload(0x40)\n      dup1\n      dup4\n      sub\n      dup2\n      0x00\n      dup8\n      dup1\n      extcodesize\n      iszero\n        /* \"--CODEGEN--\":8:17   */\n      dup1\n        /* \"--CODEGEN--\":5:7   */\n      iszero\n      tag_123\n      jumpi\n        /* \"--CODEGEN--\":30:31   */\n      0x00\n        /* \"--CODEGEN--\":27:28   */\n      dup1\n        /* \"--CODEGEN--\":20:32   */\n      revert\n        /* \"--CODEGEN--\":5:7   */\n    tag_123:\n        /* \"contracts/MyToken.sol\":9747:9817  IERC721Receiver(to).onERC721Received(msg.sender, from, tokenId, _data) */\n      pop\n      gas\n      call\n      iszero\n        /* \"--CODEGEN--\":8:17   */\n      dup1\n        /* \"--CODEGEN--\":5:7   */\n      iszero\n      tag_124\n      jumpi\n        /* \"--CODEGEN--\":45:61   */\n      returndatasize\n        /* \"--CODEGEN--\":42:43   */\n      0x00\n        /* \"--CODEGEN--\":39:40   */\n      dup1\n        /* \"--CODEGEN--\":24:62   */\n      returndatacopy\n        /* \"--CODEGEN--\":77:93   */\n      returndatasize\n        /* \"--CODEGEN--\":74:75   */\n      0x00\n        /* \"--CODEGEN--\":67:94   */\n      revert\n        /* \"--CODEGEN--\":5:7   */\n    tag_124:\n        /* \"contracts/MyToken.sol\":9747:9817  IERC721Receiver(to).onERC721Received(msg.sender, from, tokenId, _data) */\n      pop\n      pop\n      pop\n      pop\n      mload(0x40)\n      returndatasize\n        /* \"--CODEGEN--\":13:15   */\n      0x20\n        /* \"--CODEGEN--\":8:11   */\n      dup2\n        /* \"--CODEGEN--\":5:16   */\n      lt\n        /* \"--CODEGEN--\":2:4   */\n      iszero\n      tag_125\n      jumpi\n        /* \"--CODEGEN--\":29:30   */\n      0x00\n        /* \"--CODEGEN--\":26:27   */\n      dup1\n        /* \"--CODEGEN--\":19:31   */\n      revert\n        /* \"--CODEGEN--\":2:4   */\n    tag_125:\n        /* \"contracts/MyToken.sol\":9747:9817  IERC721Receiver(to).onERC721Received(msg.sender, from, tokenId, _data) */\n      dup2\n      add\n      swap1\n      dup1\n      dup1\n      mload\n      swap1\n      0x20\n      add\n      swap1\n      swap3\n      swap2\n      swap1\n      pop\n      pop\n      pop\n        /* \"contracts/MyToken.sol\":9731:9817  bytes4 retval = IERC721Receiver(to).onERC721Received(msg.sender, from, tokenId, _data) */\n      swap1\n      pop\n        /* \"contracts/MyToken.sol\":4349:4359  0x150b7a02 */\n      0x150b7a02\n        /* \"contracts/MyToken.sol\":9845:9861  _ERC721_RECEIVED */\n      0xe0\n      shl\n        /* \"contracts/MyToken.sol\":9835:9861  retval == _ERC721_RECEIVED */\n      not(0xffffffffffffffffffffffffffffffffffffffffffffffffffffffff)\n      and\n        /* \"contracts/MyToken.sol\":9835:9841  retval */\n      dup2\n        /* \"contracts/MyToken.sol\":9835:9861  retval == _ERC721_RECEIVED */\n      not(0xffffffffffffffffffffffffffffffffffffffffffffffffffffffff)\n      and\n      eq\n        /* \"contracts/MyToken.sol\":9827:9862  return (retval == _ERC721_RECEIVED) */\n      swap2\n      pop\n      pop\n        /* \"contracts/MyToken.sol\":9522:9869  function _checkOnERC721Received(address from, address to, uint256 tokenId, bytes memory _data)... */\n    tag_115:\n      swap5\n      swap4\n      pop\n      pop\n      pop\n      pop\n      jump\t// out\n        /* \"contracts/MyToken.sol\":9875:10046  function _clearApproval(uint256 tokenId) private {... */\n    tag_94:\n        /* \"contracts/MyToken.sol\":9974:9975  0 */\n      0x00\n        /* \"contracts/MyToken.sol\":9938:9976  _tokenApprovals[tokenId] != address(0) */\n      0xffffffffffffffffffffffffffffffffffffffff\n      and\n        /* \"contracts/MyToken.sol\":9938:9953  _tokenApprovals */\n      0x02\n        /* \"contracts/MyToken.sol\":9938:9962  _tokenApprovals[tokenId] */\n      0x00\n        /* \"contracts/MyToken.sol\":9954:9961  tokenId */\n      dup4\n        /* \"contracts/MyToken.sol\":9938:9962  _tokenApprovals[tokenId] */\n      dup2\n      mstore\n      0x20\n      add\n      swap1\n      dup2\n      mstore\n      0x20\n      add\n      0x00\n      keccak256\n      0x00\n      swap1\n      sload\n      swap1\n      0x0100\n      exp\n      swap1\n      div\n      0xffffffffffffffffffffffffffffffffffffffff\n      and\n        /* \"contracts/MyToken.sol\":9938:9976  _tokenApprovals[tokenId] != address(0) */\n      0xffffffffffffffffffffffffffffffffffffffff\n      and\n      eq\n        /* \"contracts/MyToken.sol\":9934:10040  if (_tokenApprovals[tokenId] != address(0)) {... */\n      tag_127\n      jumpi\n        /* \"contracts/MyToken.sol\":10027:10028  0 */\n      0x00\n        /* \"contracts/MyToken.sol\":9992:10007  _tokenApprovals */\n      0x02\n        /* \"contracts/MyToken.sol\":9992:10016  _tokenApprovals[tokenId] */\n      0x00\n        /* \"contracts/MyToken.sol\":10008:10015  tokenId */\n      dup4\n        /* \"contracts/MyToken.sol\":9992:10016  _tokenApprovals[tokenId] */\n      dup2\n      mstore\n      0x20\n      add\n      swap1\n      dup2\n      mstore\n      0x20\n      add\n      0x00\n      keccak256\n      0x00\n        /* \"contracts/MyToken.sol\":9992:10029  _tokenApprovals[tokenId] = address(0) */\n      0x0100\n      exp\n      dup2\n      sload\n      dup2\n      0xffffffffffffffffffffffffffffffffffffffff\n      mul\n      not\n      and\n      swap1\n      dup4\n      0xffffffffffffffffffffffffffffffffffffffff\n      and\n      mul\n      or\n      swap1\n      sstore\n      pop\n        /* \"contracts/MyToken.sol\":9934:10040  if (_tokenApprovals[tokenId] != address(0)) {... */\n    tag_127:\n        /* \"contracts/MyToken.sol\":9875:10046  function _clearApproval(uint256 tokenId) private {... */\n      pop\n      jump\t// out\n        /* \"contracts/MyToken.sol\":1779:1887  function decrement(Counter storage counter) internal {... */\n    tag_96:\n        /* \"contracts/MyToken.sol\":1859:1880  counter._value.sub(1) */\n      tag_129\n        /* \"contracts/MyToken.sol\":1878:1879  1 */\n      0x01\n        /* \"contracts/MyToken.sol\":1859:1866  counter */\n      dup3\n        /* \"contracts/MyToken.sol\":1859:1873  counter._value */\n      0x00\n      add\n      sload\n        /* \"contracts/MyToken.sol\":1859:1877  counter._value.sub */\n      tag_130\n      swap1\n        /* \"contracts/MyToken.sol\":1859:1880  counter._value.sub(1) */\n      swap2\n      swap1\n      0xffffffff\n      and\n      jump\t// in\n    tag_129:\n        /* \"contracts/MyToken.sol\":1842:1849  counter */\n      dup2\n        /* \"contracts/MyToken.sol\":1842:1856  counter._value */\n      0x00\n      add\n        /* \"contracts/MyToken.sol\":1842:1880  counter._value = counter._value.sub(1) */\n      dup2\n      swap1\n      sstore\n      pop\n        /* \"contracts/MyToken.sol\":1779:1887  function decrement(Counter storage counter) internal {... */\n      pop\n      jump\t// out\n        /* \"contracts/MyToken.sol\":1684:1773  function increment(Counter storage counter) internal {... */\n    tag_113:\n        /* \"contracts/MyToken.sol\":1765:1766  1 */\n      0x01\n        /* \"contracts/MyToken.sol\":1747:1754  counter */\n      dup2\n        /* \"contracts/MyToken.sol\":1747:1761  counter._value */\n      0x00\n      add\n      0x00\n        /* \"contracts/MyToken.sol\":1747:1766  counter._value += 1 */\n      dup3\n      dup3\n      sload\n      add\n      swap3\n      pop\n      pop\n      dup2\n      swap1\n      sstore\n      pop\n        /* \"contracts/MyToken.sol\":1684:1773  function increment(Counter storage counter) internal {... */\n      pop\n      jump\t// out\n        /* \"contracts/MyToken.sol\":50:221  function isContract(address account) internal view returns (bool) {... */\n    tag_117:\n        /* \"contracts/MyToken.sol\":110:114  bool */\n      0x00\n        /* \"contracts/MyToken.sol\":126:138  uint256 size */\n      dup1\n        /* \"contracts/MyToken.sol\":180:187  account */\n      dup3\n        /* \"contracts/MyToken.sol\":168:188  extcodesize(account) */\n      extcodesize\n        /* \"contracts/MyToken.sol\":160:188  size := extcodesize(account) */\n      swap1\n      pop\n        /* \"contracts/MyToken.sol\":213:214  0 */\n      0x00\n        /* \"contracts/MyToken.sol\":206:210  size */\n      dup2\n        /* \"contracts/MyToken.sol\":206:214  size > 0 */\n      gt\n        /* \"contracts/MyToken.sol\":199:214  return size > 0 */\n      swap2\n      pop\n      pop\n        /* \"contracts/MyToken.sol\":50:221  function isContract(address account) internal view returns (bool) {... */\n      swap2\n      swap1\n      pop\n      jump\t// out\n        /* \"contracts/MyToken.sol\":430:609  function sub(uint256 a, uint256 b) internal pure returns (uint256) {... */\n    tag_130:\n        /* \"contracts/MyToken.sol\":488:495  uint256 */\n      0x00\n        /* \"contracts/MyToken.sol\":520:521  a */\n      dup3\n        /* \"contracts/MyToken.sol\":515:516  b */\n      dup3\n        /* \"contracts/MyToken.sol\":515:521  b <= a */\n      gt\n      iszero\n        /* \"contracts/MyToken.sol\":507:556  require(b <= a, \"SafeMath: subtraction overflow\") */\n      tag_134\n      jumpi\n      mload(0x40)\n      0x08c379a000000000000000000000000000000000000000000000000000000000\n      dup2\n      mstore\n      0x04\n      add\n      dup1\n      dup1\n      0x20\n      add\n      dup3\n      dup2\n      sub\n      dup3\n      mstore\n      0x1e\n      dup2\n      mstore\n      0x20\n      add\n      dup1\n      0x536166654d6174683a207375627472616374696f6e206f766572666c6f770000\n      dup2\n      mstore\n      pop\n      0x20\n      add\n      swap2\n      pop\n      pop\n      mload(0x40)\n      dup1\n      swap2\n      sub\n      swap1\n      revert\n    tag_134:\n        /* \"contracts/MyToken.sol\":566:575  uint256 c */\n      0x00\n        /* \"contracts/MyToken.sol\":582:583  b */\n      dup3\n        /* \"contracts/MyToken.sol\":578:579  a */\n      dup5\n        /* \"contracts/MyToken.sol\":578:583  a - b */\n      sub\n        /* \"contracts/MyToken.sol\":566:583  uint256 c = a - b */\n      swap1\n      pop\n        /* \"contracts/MyToken.sol\":601:602  c */\n      dup1\n        /* \"contracts/MyToken.sol\":594:602  return c */\n      swap2\n      pop\n      pop\n        /* \"contracts/MyToken.sol\":430:609  function sub(uint256 a, uint256 b) internal pure returns (uint256) {... */\n      swap3\n      swap2\n      pop\n      pop\n      jump\t// out\n\n    auxdata: 0xa265627a7a72315820e20ee2aa24ef5c19dd34e3a0cd5a3aaeaa3bab30c3b29ee12858ab91b00db32d64736f6c63430005110032\n}\n",
				"bytecode": {
					"linkReferences": {},
					"object": "608060405234801561001057600080fd5b506100276301ffc9a760e01b61004260201b60201c565b61003d6380ac58cd60e01b61004260201b60201c565b61014a565b63ffffffff60e01b817bffffffffffffffffffffffffffffffffffffffffffffffffffffffff191614156100de576040517f08c379a000000000000000000000000000000000000000000000000000000000815260040180806020018281038252601c8152602001807f4552433136353a20696e76616c696420696e746572666163652069640000000081525060200191505060405180910390fd5b6001600080837bffffffffffffffffffffffffffffffffffffffffffffffffffffffff19167bffffffffffffffffffffffffffffffffffffffffffffffffffffffff1916815260200190815260200160002060006101000a81548160ff02191690831515021790555050565b61132f806101596000396000f3fe608060405234801561001057600080fd5b50600436106100a95760003560e01c806342842e0e1161007157806342842e0e1461026b5780636352211e146102d957806370a0823114610347578063a22cb4651461039f578063b88d4fde146103ef578063e985e9c5146104f4576100a9565b806301ffc9a7146100ae578063081812fc14610113578063095ea7b31461018157806320c5429b146101cf57806323b872dd146101fd575b600080fd5b6100f9600480360360208110156100c457600080fd5b8101908080357bffffffffffffffffffffffffffffffffffffffffffffffffffffffff19169060200190929190505050610570565b604051808215151515815260200191505060405180910390f35b61013f6004803603602081101561012957600080fd5b81019080803590602001909291905050506105d7565b604051808273ffffffffffffffffffffffffffffffffffffffff1673ffffffffffffffffffffffffffffffffffffffff16815260200191505060405180910390f35b6101cd6004803603604081101561019757600080fd5b81019080803573ffffffffffffffffffffffffffffffffffffffff16906020019092919080359060200190929190505050610626565b005b6101fb600480360360208110156101e557600080fd5b8101908080359060200190929190505050610767565b005b6102696004803603606081101561021357600080fd5b81019080803573ffffffffffffffffffffffffffffffffffffffff169060200190929190803573ffffffffffffffffffffffffffffffffffffffff169060200190929190803590602001909291905050506107c8565b005b6102d76004803603606081101561028157600080fd5b81019080803573ffffffffffffffffffffffffffffffffffffffff169060200190929190803573ffffffffffffffffffffffffffffffffffffffff169060200190929190803590602001909291905050506107eb565b005b610305600480360360208110156102ef57600080fd5b810190808035906020019092919050505061080b565b604051808273ffffffffffffffffffffffffffffffffffffffff1673ffffffffffffffffffffffffffffffffffffffff16815260200191505060405180910390f35b6103896004803603602081101561035d57600080fd5b81019080803573ffffffffffffffffffffffffffffffffffffffff169060200190929190505050610887565b6040518082815260200191505060405180910390f35b6103ed600480360360408110156103b557600080fd5b81019080803573ffffffffffffffffffffffffffffffffffffffff169060200190929190803515159060200190929190505050610910565b005b6104f26004803603608081101561040557600080fd5b81019080803573ffffffffffffffffffffffffffffffffffffffff169060200190929190803573ffffffffffffffffffffffffffffffffffffffff169060200190929190803590602001909291908035906020019064010000000081111561046c57600080fd5b82018360208201111561047e57600080fd5b803590602001918460018302840111640100000000831117156104a057600080fd5b91908080601f016020809104026020016040519081016040528093929190818152602001838380828437600081840152601f19601f820116905080830192505050505050509192919290505050610a4a565b005b6105566004803603604081101561050a57600080fd5b81019080803573ffffffffffffffffffffffffffffffffffffffff169060200190929190803573ffffffffffffffffffffffffffffffffffffffff169060200190929190505050610a70565b604051808215151515815260200191505060405180910390f35b6000806000837bffffffffffffffffffffffffffffffffffffffffffffffffffffffff19167bffffffffffffffffffffffffffffffffffffffffffffffffffffffff1916815260200190815260200160002060009054906101000a900460ff169050919050565b60006105e282610b04565b6105eb57600080fd5b6002600083815260200190815260200160002060009054906101000a900473ffffffffffffffffffffffffffffffffffffffff169050919050565b60006106318261080b565b90508073ffffffffffffffffffffffffffffffffffffffff168373ffffffffffffffffffffffffffffffffffffffff16141561066c57600080fd5b8073ffffffffffffffffffffffffffffffffffffffff163373ffffffffffffffffffffffffffffffffffffffff1614806106ac57506106ab8133610a70565b5b6106b557600080fd5b826002600084815260200190815260200160002060006101000a81548173ffffffffffffffffffffffffffffffffffffffff021916908373ffffffffffffffffffffffffffffffffffffffff160217905550818373ffffffffffffffffffffffffffffffffffffffff168273ffffffffffffffffffffffffffffffffffffffff167f8c5be1e5ebec7d5bd14f71427d1e84f3dd0314c0f7b2291e5b200ac8c7c3b92560405160405180910390a4505050565b3373ffffffffffffffffffffffffffffffffffffffff1673a05e1c5cea7aa7b9202e6a2c65f284449e8fd81273ffffffffffffffffffffffffffffffffffffffff16146107b357600080fd5b6107c56107bf8261080b565b82610b76565b50565b6107d23382610cb9565b6107db57600080fd5b6107e6838383610d61565b505050565b61080683838360405180602001604052806000815250610a4a565b505050565b6000806001600084815260200190815260200160002060009054906101000a900473ffffffffffffffffffffffffffffffffffffffff169050600073ffffffffffffffffffffffffffffffffffffffff168173ffffffffffffffffffffffffffffffffffffffff16141561087e57600080fd5b80915050919050565b60008073ffffffffffffffffffffffffffffffffffffffff168273ffffffffffffffffffffffffffffffffffffffff1614156108c257600080fd5b610909600360008473ffffffffffffffffffffffffffffffffffffffff1673ffffffffffffffffffffffffffffffffffffffff168152602001908152602001600020610f70565b9050919050565b3373ffffffffffffffffffffffffffffffffffffffff168273ffffffffffffffffffffffffffffffffffffffff16141561094957600080fd5b80600460003373ffffffffffffffffffffffffffffffffffffffff1673ffffffffffffffffffffffffffffffffffffffff16815260200190815260200160002060008473ffffffffffffffffffffffffffffffffffffffff1673ffffffffffffffffffffffffffffffffffffffff16815260200190815260200160002060006101000a81548160ff0219169083151502179055508173ffffffffffffffffffffffffffffffffffffffff163373ffffffffffffffffffffffffffffffffffffffff167f17307eab39ab6107e8899845ad3d59bd9653f200f220920489ca2b5937696c3183604051808215151515815260200191505060405180910390a35050565b610a558484846107c8565b610a6184848484610f7e565b610a6a57600080fd5b50505050565b6000600460008473ffffffffffffffffffffffffffffffffffffffff1673ffffffffffffffffffffffffffffffffffffffff16815260200190815260200160002060008373ffffffffffffffffffffffffffffffffffffffff1673ffffffffffffffffffffffffffffffffffffffff16815260200190815260200160002060009054906101000a900460ff16905092915050565b6000806001600084815260200190815260200160002060009054906101000a900473ffffffffffffffffffffffffffffffffffffffff169050600073ffffffffffffffffffffffffffffffffffffffff168173ffffffffffffffffffffffffffffffffffffffff161415915050919050565b8173ffffffffffffffffffffffffffffffffffffffff16610b968261080b565b73ffffffffffffffffffffffffffffffffffffffff1614610bb657600080fd5b610bbf81611167565b610c06600360008473ffffffffffffffffffffffffffffffffffffffff1673ffffffffffffffffffffffffffffffffffffffff168152602001908152602001600020611225565b60006001600083815260200190815260200160002060006101000a81548173ffffffffffffffffffffffffffffffffffffffff021916908373ffffffffffffffffffffffffffffffffffffffff16021790555080600073ffffffffffffffffffffffffffffffffffffffff168373ffffffffffffffffffffffffffffffffffffffff167fddf252ad1be2c89b69c2b068fc378daa952ba7f163c4a11628f55a4df523b3ef60405160405180910390a45050565b6000610cc482610b04565b610ccd57600080fd5b6000610cd88361080b565b90508073ffffffffffffffffffffffffffffffffffffffff168473ffffffffffffffffffffffffffffffffffffffff161480610d4757508373ffffffffffffffffffffffffffffffffffffffff16610d2f846105d7565b73ffffffffffffffffffffffffffffffffffffffff16145b80610d585750610d578185610a70565b5b91505092915050565b3373ffffffffffffffffffffffffffffffffffffffff1673a05e1c5cea7aa7b9202e6a2c65f284449e8fd81273ffffffffffffffffffffffffffffffffffffffff1614610dad57600080fd5b8273ffffffffffffffffffffffffffffffffffffffff16610dcd8261080b565b73ffffffffffffffffffffffffffffffffffffffff1614610ded57600080fd5b600073ffffffffffffffffffffffffffffffffffffffff168273ffffffffffffffffffffffffffffffffffffffff161415610e2757600080fd5b610e3081611167565b610e77600360008573ffffffffffffffffffffffffffffffffffffffff1673ffffffffffffffffffffffffffffffffffffffff168152602001908152602001600020611225565b610ebe600360008473ffffffffffffffffffffffffffffffffffffffff1673ffffffffffffffffffffffffffffffffffffffff168152602001908152602001600020611248565b816001600083815260200190815260200160002060006101000a81548173ffffffffffffffffffffffffffffffffffffffff021916908373ffffffffffffffffffffffffffffffffffffffff160217905550808273ffffffffffffffffffffffffffffffffffffffff168473ffffffffffffffffffffffffffffffffffffffff167fddf252ad1be2c89b69c2b068fc378daa952ba7f163c4a11628f55a4df523b3ef60405160405180910390a4505050565b600081600001549050919050565b6000610f9f8473ffffffffffffffffffffffffffffffffffffffff1661125e565b610fac576001905061115f565b60008473ffffffffffffffffffffffffffffffffffffffff1663150b7a02338887876040518563ffffffff1660e01b8152600401808573ffffffffffffffffffffffffffffffffffffffff1673ffffffffffffffffffffffffffffffffffffffff1681526020018473ffffffffffffffffffffffffffffffffffffffff1673ffffffffffffffffffffffffffffffffffffffff16815260200183815260200180602001828103825283818151815260200191508051906020019080838360005b8381101561108757808201518184015260208101905061106c565b50505050905090810190601f1680156110b45780820380516001836020036101000a031916815260200191505b5095505050505050602060405180830381600087803b1580156110d657600080fd5b505af11580156110ea573d6000803e3d6000fd5b505050506040513d602081101561110057600080fd5b8101908080519060200190929190505050905063150b7a0260e01b7bffffffffffffffffffffffffffffffffffffffffffffffffffffffff1916817bffffffffffffffffffffffffffffffffffffffffffffffffffffffff1916149150505b949350505050565b600073ffffffffffffffffffffffffffffffffffffffff166002600083815260200190815260200160002060009054906101000a900473ffffffffffffffffffffffffffffffffffffffff1673ffffffffffffffffffffffffffffffffffffffff16146112225760006002600083815260200190815260200160002060006101000a81548173ffffffffffffffffffffffffffffffffffffffff021916908373ffffffffffffffffffffffffffffffffffffffff1602179055505b50565b61123d6001826000015461127190919063ffffffff16565b816000018190555050565b6001816000016000828254019250508190555050565b600080823b905060008111915050919050565b6000828211156112e9576040517f08c379a000000000000000000000000000000000000000000000000000000000815260040180806020018281038252601e8152602001807f536166654d6174683a207375627472616374696f6e206f766572666c6f77000081525060200191505060405180910390fd5b60008284039050809150509291505056fea265627a7a72315820e20ee2aa24ef5c19dd34e3a0cd5a3aaeaa3bab30c3b29ee12858ab91b00db32d64736f6c63430005110032",
					"opcodes": "PUSH1 0x80 PUSH1 0x40 MSTORE CALLVALUE DUP1 ISZERO PUSH2 0x10 JUMPI PUSH1 0x0 DUP1 REVERT JUMPDEST POP PUSH2 0x27 PUSH4 0x1FFC9A7 PUSH1 0xE0 SHL PUSH2 0x42 PUSH1 0x20 SHL PUSH1 0x20 SHR JUMP JUMPDEST PUSH2 0x3D PUSH4 0x80AC58CD PUSH1 0xE0 SHL PUSH2 0x42 PUSH1 0x20 SHL PUSH1 0x20 SHR JUMP JUMPDEST PUSH2 0x14A JUMP JUMPDEST PUSH4 0xFFFFFFFF PUSH1 0xE0 SHL DUP2 PUSH28 0xFFFFFFFFFFFFFFFFFFFFFFFFFFFFFFFFFFFFFFFFFFFFFFFFFFFFFFFF NOT AND EQ ISZERO PUSH2 0xDE JUMPI PUSH1 0x40 MLOAD PUSH32 0x8C379A000000000000000000000000000000000000000000000000000000000 DUP2 MSTORE PUSH1 0x4 ADD DUP1 DUP1 PUSH1 0x20 ADD DUP3 DUP2 SUB DUP3 MSTORE PUSH1 0x1C DUP2 MSTORE PUSH1 0x20 ADD DUP1 PUSH32 0x4552433136353A20696E76616C696420696E7465726661636520696400000000 DUP2 MSTORE POP PUSH1 0x20 ADD SWAP2 POP POP PUSH1 0x40 MLOAD DUP1 SWAP2 SUB SWAP1 REVERT JUMPDEST PUSH1 0x1 PUSH1 0x0 DUP1 DUP4 PUSH28 0xFFFFFFFFFFFFFFFFFFFFFFFFFFFFFFFFFFFFFFFFFFFFFFFFFFFFFFFF NOT AND PUSH28 0xFFFFFFFFFFFFFFFFFFFFFFFFFFFFFFFFFFFFFFFFFFFFFFFFFFFFFFFF NOT AND DUP2 MSTORE PUSH1 0x20 ADD SWAP1 DUP2 MSTORE PUSH1 0x20 ADD PUSH1 0x0 KECCAK256 PUSH1 0x0 PUSH2 0x100 EXP DUP2 SLOAD DUP2 PUSH1 0xFF MUL NOT AND SWAP1 DUP4 ISZERO ISZERO MUL OR SWAP1 SSTORE POP POP JUMP JUMPDEST PUSH2 0x132F DUP1 PUSH2 0x159 PUSH1 0x0 CODECOPY PUSH1 0x0 RETURN INVALID PUSH1 0x80 PUSH1 0x40 MSTORE CALLVALUE DUP1 ISZERO PUSH2 0x10 JUMPI PUSH1 0x0 DUP1 REVERT JUMPDEST POP PUSH1 0x4 CALLDATASIZE LT PUSH2 0xA9 JUMPI PUSH1 0x0 CALLDATALOAD PUSH1 0xE0 SHR DUP1 PUSH4 0x42842E0E GT PUSH2 0x71 JUMPI DUP1 PUSH4 0x42842E0E EQ PUSH2 0x26B JUMPI DUP1 PUSH4 0x6352211E EQ PUSH2 0x2D9 JUMPI DUP1 PUSH4 0x70A08231 EQ PUSH2 0x347 JUMPI DUP1 PUSH4 0xA22CB465 EQ PUSH2 0x39F JUMPI DUP1 PUSH4 0xB88D4FDE EQ PUSH2 0x3EF JUMPI DUP1 PUSH4 0xE985E9C5 EQ PUSH2 0x4F4 JUMPI PUSH2 0xA9 JUMP JUMPDEST DUP1 PUSH4 0x1FFC9A7 EQ PUSH2 0xAE JUMPI DUP1 PUSH4 0x81812FC EQ PUSH2 0x113 JUMPI DUP1 PUSH4 0x95EA7B3 EQ PUSH2 0x181 JUMPI DUP1 PUSH4 0x20C5429B EQ PUSH2 0x1CF JUMPI DUP1 PUSH4 0x23B872DD EQ PUSH2 0x1FD JUMPI JUMPDEST PUSH1 0x0 DUP1 REVERT JUMPDEST PUSH2 0xF9 PUSH1 0x4 DUP1 CALLDATASIZE SUB PUSH1 0x20 DUP2 LT ISZERO PUSH2 0xC4 JUMPI PUSH1 0x0 DUP1 REVERT JUMPDEST DUP2 ADD SWAP1 DUP1 DUP1 CALLDATALOAD PUSH28 0xFFFFFFFFFFFFFFFFFFFFFFFFFFFFFFFFFFFFFFFFFFFFFFFFFFFFFFFF NOT AND SWAP1 PUSH1 0x20 ADD SWAP1 SWAP3 SWAP2 SWAP1 POP POP POP PUSH2 0x570 JUMP JUMPDEST PUSH1 0x40 MLOAD DUP1 DUP3 ISZERO ISZERO ISZERO ISZERO DUP2 MSTORE PUSH1 0x20 ADD SWAP2 POP POP PUSH1 0x40 MLOAD DUP1 SWAP2 SUB SWAP1 RETURN JUMPDEST PUSH2 0x13F PUSH1 0x4 DUP1 CALLDATASIZE SUB PUSH1 0x20 DUP2 LT ISZERO PUSH2 0x129 JUMPI PUSH1 0x0 DUP1 REVERT JUMPDEST DUP2 ADD SWAP1 DUP1 DUP1 CALLDATALOAD SWAP1 PUSH1 0x20 ADD SWAP1 SWAP3 SWAP2 SWAP1 POP POP POP PUSH2 0x5D7 JUMP JUMPDEST PUSH1 0x40 MLOAD DUP1 DUP3 PUSH20 0xFFFFFFFFFFFFFFFFFFFFFFFFFFFFFFFFFFFFFFFF AND PUSH20 0xFFFFFFFFFFFFFFFFFFFFFFFFFFFFFFFFFFFFFFFF AND DUP2 MSTORE PUSH1 0x20 ADD SWAP2 POP POP PUSH1 0x40 MLOAD DUP1 SWAP2 SUB SWAP1 RETURN JUMPDEST PUSH2 0x1CD PUSH1 0x4 DUP1 CALLDATASIZE SUB PUSH1 0x40 DUP2 LT ISZERO PUSH2 0x197 JUMPI PUSH1 0x0 DUP1 REVERT JUMPDEST DUP2 ADD SWAP1 DUP1 DUP1 CALLDATALOAD PUSH20 0xFFFFFFFFFFFFFFFFFFFFFFFFFFFFFFFFFFFFFFFF AND SWAP1 PUSH1 0x20 ADD SWAP1 SWAP3 SWAP2 SWAP1 DUP1 CALLDATALOAD SWAP1 PUSH1 0x20 ADD SWAP1 SWAP3 SWAP2 SWAP1 POP POP POP PUSH2 0x626 JUMP JUMPDEST STOP JUMPDEST PUSH2 0x1FB PUSH1 0x4 DUP1 CALLDATASIZE SUB PUSH1 0x20 DUP2 LT ISZERO PUSH2 0x1E5 JUMPI PUSH1 0x0 DUP1 REVERT JUMPDEST DUP2 ADD SWAP1 DUP1 DUP1 CALLDATALOAD SWAP1 PUSH1 0x20 ADD SWAP1 SWAP3 SWAP2 SWAP1 POP POP POP PUSH2 0x767 JUMP JUMPDEST STOP JUMPDEST PUSH2 0x269 PUSH1 0x4 DUP1 CALLDATASIZE SUB PUSH1 0x60 DUP2 LT ISZERO PUSH2 0x213 JUMPI PUSH1 0x0 DUP1 REVERT JUMPDEST DUP2 ADD SWAP1 DUP1 DUP1 CALLDATALOAD PUSH20 0xFFFFFFFFFFFFFFFFFFFFFFFFFFFFFFFFFFFFFFFF AND SWAP1 PUSH1 0x20 ADD SWAP1 SWAP3 SWAP2 SWAP1 DUP1 CALLDATALOAD PUSH20 0xFFFFFFFFFFFFFFFFFFFFFFFFFFFFFFFFFFFFFFFF AND SWAP1 PUSH1 0x20 ADD SWAP1 SWAP3 SWAP2 SWAP1 DUP1 CALLDATALOAD SWAP1 PUSH1 0x20 ADD SWAP1 SWAP3 SWAP2 SWAP1 POP POP POP PUSH2 0x7C8 JUMP JUMPDEST STOP JUMPDEST PUSH2 0x2D7 PUSH1 0x4 DUP1 CALLDATASIZE SUB PUSH1 0x60 DUP2 LT ISZERO PUSH2 0x281 JUMPI PUSH1 0x0 DUP1 REVERT JUMPDEST DUP2 ADD SWAP1 DUP1 DUP1 CALLDATALOAD PUSH20 0xFFFFFFFFFFFFFFFFFFFFFFFFFFFFFFFFFFFFFFFF AND SWAP1 PUSH1 0x20 ADD SWAP1 SWAP3 SWAP2 SWAP1 DUP1 CALLDATALOAD PUSH20 0xFFFFFFFFFFFFFFFFFFFFFFFFFFFFFFFFFFFFFFFF AND SWAP1 PUSH1 0x20 ADD SWAP1 SWAP3 SWAP2 SWAP1 DUP1 CALLDATALOAD SWAP1 PUSH1 0x20 ADD SWAP1 SWAP3 SWAP2 SWAP1 POP POP POP PUSH2 0x7EB JUMP JUMPDEST STOP JUMPDEST PUSH2 0x305 PUSH1 0x4 DUP1 CALLDATASIZE SUB PUSH1 0x20 DUP2 LT ISZERO PUSH2 0x2EF JUMPI PUSH1 0x0 DUP1 REVERT JUMPDEST DUP2 ADD SWAP1 DUP1 DUP1 CALLDATALOAD SWAP1 PUSH1 0x20 ADD SWAP1 SWAP3 SWAP2 SWAP1 POP POP POP PUSH2 0x80B JUMP JUMPDEST PUSH1 0x40 MLOAD DUP1 DUP3 PUSH20 0xFFFFFFFFFFFFFFFFFFFFFFFFFFFFFFFFFFFFFFFF AND PUSH20 0xFFFFFFFFFFFFFFFFFFFFFFFFFFFFFFFFFFFFFFFF AND DUP2 MSTORE PUSH1 0x20 ADD SWAP2 POP POP PUSH1 0x40 MLOAD DUP1 SWAP2 SUB SWAP1 RETURN JUMPDEST PUSH2 0x389 PUSH1 0x4 DUP1 CALLDATASIZE SUB PUSH1 0x20 DUP2 LT ISZERO PUSH2 0x35D JUMPI PUSH1 0x0 DUP1 REVERT JUMPDEST DUP2 ADD SWAP1 DUP1 DUP1 CALLDATALOAD PUSH20 0xFFFFFFFFFFFFFFFFFFFFFFFFFFFFFFFFFFFFFFFF AND SWAP1 PUSH1 0x20 ADD SWAP1 SWAP3 SWAP2 SWAP1 POP POP POP PUSH2 0x887 JUMP JUMPDEST PUSH1 0x40 MLOAD DUP1 DUP3 DUP2 MSTORE PUSH1 0x20 ADD SWAP2 POP POP PUSH1 0x40 MLOAD DUP1 SWAP2 SUB SWAP1 RETURN JUMPDEST PUSH2 0x3ED PUSH1 0x4 DUP1 CALLDATASIZE SUB PUSH1 0x40 DUP2 LT ISZERO PUSH2 0x3B5 JUMPI PUSH1 0x0 DUP1 REVERT JUMPDEST DUP2 ADD SWAP1 DUP1 DUP1 CALLDATALOAD PUSH20 0xFFFFFFFFFFFFFFFFFFFFFFFFFFFFFFFFFFFFFFFF AND SWAP1 PUSH1 0x20 ADD SWAP1 SWAP3 SWAP2 SWAP1 DUP1 CALLDATALOAD ISZERO ISZERO SWAP1 PUSH1 0x20 ADD SWAP1 SWAP3 SWAP2 SWAP1 POP POP POP PUSH2 0x910 JUMP JUMPDEST STOP JUMPDEST PUSH2 0x4F2 PUSH1 0x4 DUP1 CALLDATASIZE SUB PUSH1 0x80 DUP2 LT ISZERO PUSH2 0x405 JUMPI PUSH1 0x0 DUP1 REVERT JUMPDEST DUP2 ADD SWAP1 DUP1 DUP1 CALLDATALOAD PUSH20 0xFFFFFFFFFFFFFFFFFFFFFFFFFFFFFFFFFFFFFFFF AND SWAP1 PUSH1 0x20 ADD SWAP1 SWAP3 SWAP2 SWAP1 DUP1 CALLDATALOAD PUSH20 0xFFFFFFFFFFFFFFFFFFFFFFFFFFFFFFFFFFFFFFFF AND SWAP1 PUSH1 0x20 ADD SWAP1 SWAP3 SWAP2 SWAP1 DUP1 CALLDATALOAD SWAP1 PUSH1 0x20 ADD SWAP1 SWAP3 SWAP2 SWAP1 DUP1 CALLDATALOAD SWAP1 PUSH1 0x20 ADD SWAP1 PUSH5 0x100000000 DUP2 GT ISZERO PUSH2 0x46C JUMPI PUSH1 0x0 DUP1 REVERT JUMPDEST DUP3 ADD DUP4 PUSH1 0x20 DUP3 ADD GT ISZERO PUSH2 0x47E JUMPI PUSH1 0x0 DUP1 REVERT JUMPDEST DUP1 CALLDATALOAD SWAP1 PUSH1 0x20 ADD SWAP2 DUP5 PUSH1 0x1 DUP4 MUL DUP5 ADD GT PUSH5 0x100000000 DUP4 GT OR ISZERO PUSH2 0x4A0 JUMPI PUSH1 0x0 DUP1 REVERT JUMPDEST SWAP2 SWAP1 DUP1 DUP1 PUSH1 0x1F ADD PUSH1 0x20 DUP1 SWAP2 DIV MUL PUSH1 0x20 ADD PUSH1 0x40 MLOAD SWAP1 DUP2 ADD PUSH1 0x40 MSTORE DUP1 SWAP4 SWAP3 SWAP2 SWAP1 DUP2 DUP2 MSTORE PUSH1 0x20 ADD DUP4 DUP4 DUP1 DUP3 DUP5 CALLDATACOPY PUSH1 0x0 DUP2 DUP5 ADD MSTORE PUSH1 0x1F NOT PUSH1 0x1F DUP3 ADD AND SWAP1 POP DUP1 DUP4 ADD SWAP3 POP POP POP POP POP POP POP SWAP2 SWAP3 SWAP2 SWAP3 SWAP1 POP POP POP PUSH2 0xA4A JUMP JUMPDEST STOP JUMPDEST PUSH2 0x556 PUSH1 0x4 DUP1 CALLDATASIZE SUB PUSH1 0x40 DUP2 LT ISZERO PUSH2 0x50A JUMPI PUSH1 0x0 DUP1 REVERT JUMPDEST DUP2 ADD SWAP1 DUP1 DUP1 CALLDATALOAD PUSH20 0xFFFFFFFFFFFFFFFFFFFFFFFFFFFFFFFFFFFFFFFF AND SWAP1 PUSH1 0x20 ADD SWAP1 SWAP3 SWAP2 SWAP1 DUP1 CALLDATALOAD PUSH20 0xFFFFFFFFFFFFFFFFFFFFFFFFFFFFFFFFFFFFFFFF AND SWAP1 PUSH1 0x20 ADD SWAP1 SWAP3 SWAP2 SWAP1 POP POP POP PUSH2 0xA70 JUMP JUMPDEST PUSH1 0x40 MLOAD DUP1 DUP3 ISZERO ISZERO ISZERO ISZERO DUP2 MSTORE PUSH1 0x20 ADD SWAP2 POP POP PUSH1 0x40 MLOAD DUP1 SWAP2 SUB SWAP1 RETURN JUMPDEST PUSH1 0x0 DUP1 PUSH1 0x0 DUP4 PUSH28 0xFFFFFFFFFFFFFFFFFFFFFFFFFFFFFFFFFFFFFFFFFFFFFFFFFFFFFFFF NOT AND PUSH28 0xFFFFFFFFFFFFFFFFFFFFFFFFFFFFFFFFFFFFFFFFFFFFFFFFFFFFFFFF NOT AND DUP2 MSTORE PUSH1 0x20 ADD SWAP1 DUP2 MSTORE PUSH1 0x20 ADD PUSH1 0x0 KECCAK256 PUSH1 0x0 SWAP1 SLOAD SWAP1 PUSH2 0x100 EXP SWAP1 DIV PUSH1 0xFF AND SWAP1 POP SWAP2 SWAP1 POP JUMP JUMPDEST PUSH1 0x0 PUSH2 0x5E2 DUP3 PUSH2 0xB04 JUMP JUMPDEST PUSH2 0x5EB JUMPI PUSH1 0x0 DUP1 REVERT JUMPDEST PUSH1 0x2 PUSH1 0x0 DUP4 DUP2 MSTORE PUSH1 0x20 ADD SWAP1 DUP2 MSTORE PUSH1 0x20 ADD PUSH1 0x0 KECCAK256 PUSH1 0x0 SWAP1 SLOAD SWAP1 PUSH2 0x100 EXP SWAP1 DIV PUSH20 0xFFFFFFFFFFFFFFFFFFFFFFFFFFFFFFFFFFFFFFFF AND SWAP1 POP SWAP2 SWAP1 POP JUMP JUMPDEST PUSH1 0x0 PUSH2 0x631 DUP3 PUSH2 0x80B JUMP JUMPDEST SWAP1 POP DUP1 PUSH20 0xFFFFFFFFFFFFFFFFFFFFFFFFFFFFFFFFFFFFFFFF AND DUP4 PUSH20 0xFFFFFFFFFFFFFFFFFFFFFFFFFFFFFFFFFFFFFFFF AND EQ ISZERO PUSH2 0x66C JUMPI PUSH1 0x0 DUP1 REVERT JUMPDEST DUP1 PUSH20 0xFFFFFFFFFFFFFFFFFFFFFFFFFFFFFFFFFFFFFFFF AND CALLER PUSH20 0xFFFFFFFFFFFFFFFFFFFFFFFFFFFFFFFFFFFFFFFF AND EQ DUP1 PUSH2 0x6AC JUMPI POP PUSH2 0x6AB DUP2 CALLER PUSH2 0xA70 JUMP JUMPDEST JUMPDEST PUSH2 0x6B5 JUMPI PUSH1 0x0 DUP1 REVERT JUMPDEST DUP3 PUSH1 0x2 PUSH1 0x0 DUP5 DUP2 MSTORE PUSH1 0x20 ADD SWAP1 DUP2 MSTORE PUSH1 0x20 ADD PUSH1 0x0 KECCAK256 PUSH1 0x0 PUSH2 0x100 EXP DUP2 SLOAD DUP2 PUSH20 0xFFFFFFFFFFFFFFFFFFFFFFFFFFFFFFFFFFFFFFFF MUL NOT AND SWAP1 DUP4 PUSH20 0xFFFFFFFFFFFFFFFFFFFFFFFFFFFFFFFFFFFFFFFF AND MUL OR SWAP1 SSTORE POP DUP2 DUP4 PUSH20 0xFFFFFFFFFFFFFFFFFFFFFFFFFFFFFFFFFFFFFFFF AND DUP3 PUSH20 0xFFFFFFFFFFFFFFFFFFFFFFFFFFFFFFFFFFFFFFFF AND PUSH32 0x8C5BE1E5EBEC7D5BD14F71427D1E84F3DD0314C0F7B2291E5B200AC8C7C3B925 PUSH1 0x40 MLOAD PUSH1 0x40 MLOAD DUP1 SWAP2 SUB SWAP1 LOG4 POP POP POP JUMP JUMPDEST CALLER PUSH20 0xFFFFFFFFFFFFFFFFFFFFFFFFFFFFFFFFFFFFFFFF AND PUSH20 0xA05E1C5CEA7AA7B9202E6A2C65F284449E8FD812 PUSH20 0xFFFFFFFFFFFFFFFFFFFFFFFFFFFFFFFFFFFFFFFF AND EQ PUSH2 0x7B3 JUMPI PUSH1 0x0 DUP1 REVERT JUMPDEST PUSH2 0x7C5 PUSH2 0x7BF DUP3 PUSH2 0x80B JUMP JUMPDEST DUP3 PUSH2 0xB76 JUMP JUMPDEST POP JUMP JUMPDEST PUSH2 0x7D2 CALLER DUP3 PUSH2 0xCB9 JUMP JUMPDEST PUSH2 0x7DB JUMPI PUSH1 0x0 DUP1 REVERT JUMPDEST PUSH2 0x7E6 DUP4 DUP4 DUP4 PUSH2 0xD61 JUMP JUMPDEST POP POP POP JUMP JUMPDEST PUSH2 0x806 DUP4 DUP4 DUP4 PUSH1 0x40 MLOAD DUP1 PUSH1 0x20 ADD PUSH1 0x40 MSTORE DUP1 PUSH1 0x0 DUP2 MSTORE POP PUSH2 0xA4A JUMP JUMPDEST POP POP POP JUMP JUMPDEST PUSH1 0x0 DUP1 PUSH1 0x1 PUSH1 0x0 DUP5 DUP2 MSTORE PUSH1 0x20 ADD SWAP1 DUP2 MSTORE PUSH1 0x20 ADD PUSH1 0x0 KECCAK256 PUSH1 0x0 SWAP1 SLOAD SWAP1 PUSH2 0x100 EXP SWAP1 DIV PUSH20 0xFFFFFFFFFFFFFFFFFFFFFFFFFFFFFFFFFFFFFFFF AND SWAP1 POP PUSH1 0x0 PUSH20 0xFFFFFFFFFFFFFFFFFFFFFFFFFFFFFFFFFFFFFFFF AND DUP2 PUSH20 0xFFFFFFFFFFFFFFFFFFFFFFFFFFFFFFFFFFFFFFFF AND EQ ISZERO PUSH2 0x87E JUMPI PUSH1 0x0 DUP1 REVERT JUMPDEST DUP1 SWAP2 POP POP SWAP2 SWAP1 POP JUMP JUMPDEST PUSH1 0x0 DUP1 PUSH20 0xFFFFFFFFFFFFFFFFFFFFFFFFFFFFFFFFFFFFFFFF AND DUP3 PUSH20 0xFFFFFFFFFFFFFFFFFFFFFFFFFFFFFFFFFFFFFFFF AND EQ ISZERO PUSH2 0x8C2 JUMPI PUSH1 0x0 DUP1 REVERT JUMPDEST PUSH2 0x909 PUSH1 0x3 PUSH1 0x0 DUP5 PUSH20 0xFFFFFFFFFFFFFFFFFFFFFFFFFFFFFFFFFFFFFFFF AND PUSH20 0xFFFFFFFFFFFFFFFFFFFFFFFFFFFFFFFFFFFFFFFF AND DUP2 MSTORE PUSH1 0x20 ADD SWAP1 DUP2 MSTORE PUSH1 0x20 ADD PUSH1 0x0 KECCAK256 PUSH2 0xF70 JUMP JUMPDEST SWAP1 POP SWAP2 SWAP1 POP JUMP JUMPDEST CALLER PUSH20 0xFFFFFFFFFFFFFFFFFFFFFFFFFFFFFFFFFFFFFFFF AND DUP3 PUSH20 0xFFFFFFFFFFFFFFFFFFFFFFFFFFFFFFFFFFFFFFFF AND EQ ISZERO PUSH2 0x949 JUMPI PUSH1 0x0 DUP1 REVERT JUMPDEST DUP1 PUSH1 0x4 PUSH1 0x0 CALLER PUSH20 0xFFFFFFFFFFFFFFFFFFFFFFFFFFFFFFFFFFFFFFFF AND PUSH20 0xFFFFFFFFFFFFFFFFFFFFFFFFFFFFFFFFFFFFFFFF AND DUP2 MSTORE PUSH1 0x20 ADD SWAP1 DUP2 MSTORE PUSH1 0x20 ADD PUSH1 0x0 KECCAK256 PUSH1 0x0 DUP5 PUSH20 0xFFFFFFFFFFFFFFFFFFFFFFFFFFFFFFFFFFFFFFFF AND PUSH20 0xFFFFFFFFFFFFFFFFFFFFFFFFFFFFFFFFFFFFFFFF AND DUP2 MSTORE PUSH1 0x20 ADD SWAP1 DUP2 MSTORE PUSH1 0x20 ADD PUSH1 0x0 KECCAK256 PUSH1 0x0 PUSH2 0x100 EXP DUP2 SLOAD DUP2 PUSH1 0xFF MUL NOT AND SWAP1 DUP4 ISZERO ISZERO MUL OR SWAP1 SSTORE POP DUP2 PUSH20 0xFFFFFFFFFFFFFFFFFFFFFFFFFFFFFFFFFFFFFFFF AND CALLER PUSH20 0xFFFFFFFFFFFFFFFFFFFFFFFFFFFFFFFFFFFFFFFF AND PUSH32 0x17307EAB39AB6107E8899845AD3D59BD9653F200F220920489CA2B5937696C31 DUP4 PUSH1 0x40 MLOAD DUP1 DUP3 ISZERO ISZERO ISZERO ISZERO DUP2 MSTORE PUSH1 0x20 ADD SWAP2 POP POP PUSH1 0x40 MLOAD DUP1 SWAP2 SUB SWAP1 LOG3 POP POP JUMP JUMPDEST PUSH2 0xA55 DUP5 DUP5 DUP5 PUSH2 0x7C8 JUMP JUMPDEST PUSH2 0xA61 DUP5 DUP5 DUP5 DUP5 PUSH2 0xF7E JUMP JUMPDEST PUSH2 0xA6A JUMPI PUSH1 0x0 DUP1 REVERT JUMPDEST POP POP POP POP JUMP JUMPDEST PUSH1 0x0 PUSH1 0x4 PUSH1 0x0 DUP5 PUSH20 0xFFFFFFFFFFFFFFFFFFFFFFFFFFFFFFFFFFFFFFFF AND PUSH20 0xFFFFFFFFFFFFFFFFFFFFFFFFFFFFFFFFFFFFFFFF AND DUP2 MSTORE PUSH1 0x20 ADD SWAP1 DUP2 MSTORE PUSH1 0x20 ADD PUSH1 0x0 KECCAK256 PUSH1 0x0 DUP4 PUSH20 0xFFFFFFFFFFFFFFFFFFFFFFFFFFFFFFFFFFFFFFFF AND PUSH20 0xFFFFFFFFFFFFFFFFFFFFFFFFFFFFFFFFFFFFFFFF AND DUP2 MSTORE PUSH1 0x20 ADD SWAP1 DUP2 MSTORE PUSH1 0x20 ADD PUSH1 0x0 KECCAK256 PUSH1 0x0 SWAP1 SLOAD SWAP1 PUSH2 0x100 EXP SWAP1 DIV PUSH1 0xFF AND SWAP1 POP SWAP3 SWAP2 POP POP JUMP JUMPDEST PUSH1 0x0 DUP1 PUSH1 0x1 PUSH1 0x0 DUP5 DUP2 MSTORE PUSH1 0x20 ADD SWAP1 DUP2 MSTORE PUSH1 0x20 ADD PUSH1 0x0 KECCAK256 PUSH1 0x0 SWAP1 SLOAD SWAP1 PUSH2 0x100 EXP SWAP1 DIV PUSH20 0xFFFFFFFFFFFFFFFFFFFFFFFFFFFFFFFFFFFFFFFF AND SWAP1 POP PUSH1 0x0 PUSH20 0xFFFFFFFFFFFFFFFFFFFFFFFFFFFFFFFFFFFFFFFF AND DUP2 PUSH20 0xFFFFFFFFFFFFFFFFFFFFFFFFFFFFFFFFFFFFFFFF AND EQ ISZERO SWAP2 POP POP SWAP2 SWAP1 POP JUMP JUMPDEST DUP2 PUSH20 0xFFFFFFFFFFFFFFFFFFFFFFFFFFFFFFFFFFFFFFFF AND PUSH2 0xB96 DUP3 PUSH2 0x80B JUMP JUMPDEST PUSH20 0xFFFFFFFFFFFFFFFFFFFFFFFFFFFFFFFFFFFFFFFF AND EQ PUSH2 0xBB6 JUMPI PUSH1 0x0 DUP1 REVERT JUMPDEST PUSH2 0xBBF DUP2 PUSH2 0x1167 JUMP JUMPDEST PUSH2 0xC06 PUSH1 0x3 PUSH1 0x0 DUP5 PUSH20 0xFFFFFFFFFFFFFFFFFFFFFFFFFFFFFFFFFFFFFFFF AND PUSH20 0xFFFFFFFFFFFFFFFFFFFFFFFFFFFFFFFFFFFFFFFF AND DUP2 MSTORE PUSH1 0x20 ADD SWAP1 DUP2 MSTORE PUSH1 0x20 ADD PUSH1 0x0 KECCAK256 PUSH2 0x1225 JUMP JUMPDEST PUSH1 0x0 PUSH1 0x1 PUSH1 0x0 DUP4 DUP2 MSTORE PUSH1 0x20 ADD SWAP1 DUP2 MSTORE PUSH1 0x20 ADD PUSH1 0x0 KECCAK256 PUSH1 0x0 PUSH2 0x100 EXP DUP2 SLOAD DUP2 PUSH20 0xFFFFFFFFFFFFFFFFFFFFFFFFFFFFFFFFFFFFFFFF MUL NOT AND SWAP1 DUP4 PUSH20 0xFFFFFFFFFFFFFFFFFFFFFFFFFFFFFFFFFFFFFFFF AND MUL OR SWAP1 SSTORE POP DUP1 PUSH1 0x0 PUSH20 0xFFFFFFFFFFFFFFFFFFFFFFFFFFFFFFFFFFFFFFFF AND DUP4 PUSH20 0xFFFFFFFFFFFFFFFFFFFFFFFFFFFFFFFFFFFFFFFF AND PUSH32 0xDDF252AD1BE2C89B69C2B068FC378DAA952BA7F163C4A11628F55A4DF523B3EF PUSH1 0x40 MLOAD PUSH1 0x40 MLOAD DUP1 SWAP2 SUB SWAP1 LOG4 POP POP JUMP JUMPDEST PUSH1 0x0 PUSH2 0xCC4 DUP3 PUSH2 0xB04 JUMP JUMPDEST PUSH2 0xCCD JUMPI PUSH1 0x0 DUP1 REVERT JUMPDEST PUSH1 0x0 PUSH2 0xCD8 DUP4 PUSH2 0x80B JUMP JUMPDEST SWAP1 POP DUP1 PUSH20 0xFFFFFFFFFFFFFFFFFFFFFFFFFFFFFFFFFFFFFFFF AND DUP5 PUSH20 0xFFFFFFFFFFFFFFFFFFFFFFFFFFFFFFFFFFFFFFFF AND EQ DUP1 PUSH2 0xD47 JUMPI POP DUP4 PUSH20 0xFFFFFFFFFFFFFFFFFFFFFFFFFFFFFFFFFFFFFFFF AND PUSH2 0xD2F DUP5 PUSH2 0x5D7 JUMP JUMPDEST PUSH20 0xFFFFFFFFFFFFFFFFFFFFFFFFFFFFFFFFFFFFFFFF AND EQ JUMPDEST DUP1 PUSH2 0xD58 JUMPI POP PUSH2 0xD57 DUP2 DUP6 PUSH2 0xA70 JUMP JUMPDEST JUMPDEST SWAP2 POP POP SWAP3 SWAP2 POP POP JUMP JUMPDEST CALLER PUSH20 0xFFFFFFFFFFFFFFFFFFFFFFFFFFFFFFFFFFFFFFFF AND PUSH20 0xA05E1C5CEA7AA7B9202E6A2C65F284449E8FD812 PUSH20 0xFFFFFFFFFFFFFFFFFFFFFFFFFFFFFFFFFFFFFFFF AND EQ PUSH2 0xDAD JUMPI PUSH1 0x0 DUP1 REVERT JUMPDEST DUP3 PUSH20 0xFFFFFFFFFFFFFFFFFFFFFFFFFFFFFFFFFFFFFFFF AND PUSH2 0xDCD DUP3 PUSH2 0x80B JUMP JUMPDEST PUSH20 0xFFFFFFFFFFFFFFFFFFFFFFFFFFFFFFFFFFFFFFFF AND EQ PUSH2 0xDED JUMPI PUSH1 0x0 DUP1 REVERT JUMPDEST PUSH1 0x0 PUSH20 0xFFFFFFFFFFFFFFFFFFFFFFFFFFFFFFFFFFFFFFFF AND DUP3 PUSH20 0xFFFFFFFFFFFFFFFFFFFFFFFFFFFFFFFFFFFFFFFF AND EQ ISZERO PUSH2 0xE27 JUMPI PUSH1 0x0 DUP1 REVERT JUMPDEST PUSH2 0xE30 DUP2 PUSH2 0x1167 JUMP JUMPDEST PUSH2 0xE77 PUSH1 0x3 PUSH1 0x0 DUP6 PUSH20 0xFFFFFFFFFFFFFFFFFFFFFFFFFFFFFFFFFFFFFFFF AND PUSH20 0xFFFFFFFFFFFFFFFFFFFFFFFFFFFFFFFFFFFFFFFF AND DUP2 MSTORE PUSH1 0x20 ADD SWAP1 DUP2 MSTORE PUSH1 0x20 ADD PUSH1 0x0 KECCAK256 PUSH2 0x1225 JUMP JUMPDEST PUSH2 0xEBE PUSH1 0x3 PUSH1 0x0 DUP5 PUSH20 0xFFFFFFFFFFFFFFFFFFFFFFFFFFFFFFFFFFFFFFFF AND PUSH20 0xFFFFFFFFFFFFFFFFFFFFFFFFFFFFFFFFFFFFFFFF AND DUP2 MSTORE PUSH1 0x20 ADD SWAP1 DUP2 MSTORE PUSH1 0x20 ADD PUSH1 0x0 KECCAK256 PUSH2 0x1248 JUMP JUMPDEST DUP2 PUSH1 0x1 PUSH1 0x0 DUP4 DUP2 MSTORE PUSH1 0x20 ADD SWAP1 DUP2 MSTORE PUSH1 0x20 ADD PUSH1 0x0 KECCAK256 PUSH1 0x0 PUSH2 0x100 EXP DUP2 SLOAD DUP2 PUSH20 0xFFFFFFFFFFFFFFFFFFFFFFFFFFFFFFFFFFFFFFFF MUL NOT AND SWAP1 DUP4 PUSH20 0xFFFFFFFFFFFFFFFFFFFFFFFFFFFFFFFFFFFFFFFF AND MUL OR SWAP1 SSTORE POP DUP1 DUP3 PUSH20 0xFFFFFFFFFFFFFFFFFFFFFFFFFFFFFFFFFFFFFFFF AND DUP5 PUSH20 0xFFFFFFFFFFFFFFFFFFFFFFFFFFFFFFFFFFFFFFFF AND PUSH32 0xDDF252AD1BE2C89B69C2B068FC378DAA952BA7F163C4A11628F55A4DF523B3EF PUSH1 0x40 MLOAD PUSH1 0x40 MLOAD DUP1 SWAP2 SUB SWAP1 LOG4 POP POP POP JUMP JUMPDEST PUSH1 0x0 DUP2 PUSH1 0x0 ADD SLOAD SWAP1 POP SWAP2 SWAP1 POP JUMP JUMPDEST PUSH1 0x0 PUSH2 0xF9F DUP5 PUSH20 0xFFFFFFFFFFFFFFFFFFFFFFFFFFFFFFFFFFFFFFFF AND PUSH2 0x125E JUMP JUMPDEST PUSH2 0xFAC JUMPI PUSH1 0x1 SWAP1 POP PUSH2 0x115F JUMP JUMPDEST PUSH1 0x0 DUP5 PUSH20 0xFFFFFFFFFFFFFFFFFFFFFFFFFFFFFFFFFFFFFFFF AND PUSH4 0x150B7A02 CALLER DUP9 DUP8 DUP8 PUSH1 0x40 MLOAD DUP6 PUSH4 0xFFFFFFFF AND PUSH1 0xE0 SHL DUP2 MSTORE PUSH1 0x4 ADD DUP1 DUP6 PUSH20 0xFFFFFFFFFFFFFFFFFFFFFFFFFFFFFFFFFFFFFFFF AND PUSH20 0xFFFFFFFFFFFFFFFFFFFFFFFFFFFFFFFFFFFFFFFF AND DUP2 MSTORE PUSH1 0x20 ADD DUP5 PUSH20 0xFFFFFFFFFFFFFFFFFFFFFFFFFFFFFFFFFFFFFFFF AND PUSH20 0xFFFFFFFFFFFFFFFFFFFFFFFFFFFFFFFFFFFFFFFF AND DUP2 MSTORE PUSH1 0x20 ADD DUP4 DUP2 MSTORE PUSH1 0x20 ADD DUP1 PUSH1 0x20 ADD DUP3 DUP2 SUB DUP3 MSTORE DUP4 DUP2 DUP2 MLOAD DUP2 MSTORE PUSH1 0x20 ADD SWAP2 POP DUP1 MLOAD SWAP1 PUSH1 0x20 ADD SWAP1 DUP1 DUP4 DUP4 PUSH1 0x0 JUMPDEST DUP4 DUP2 LT ISZERO PUSH2 0x1087 JUMPI DUP1 DUP3 ADD MLOAD DUP2 DUP5 ADD MSTORE PUSH1 0x20 DUP2 ADD SWAP1 POP PUSH2 0x106C JUMP JUMPDEST POP POP POP POP SWAP1 POP SWAP1 DUP2 ADD SWAP1 PUSH1 0x1F AND DUP1 ISZERO PUSH2 0x10B4 JUMPI DUP1 DUP3 SUB DUP1 MLOAD PUSH1 0x1 DUP4 PUSH1 0x20 SUB PUSH2 0x100 EXP SUB NOT AND DUP2 MSTORE PUSH1 0x20 ADD SWAP2 POP JUMPDEST POP SWAP6 POP POP POP POP POP POP PUSH1 0x20 PUSH1 0x40 MLOAD DUP1 DUP4 SUB DUP2 PUSH1 0x0 DUP8 DUP1 EXTCODESIZE ISZERO DUP1 ISZERO PUSH2 0x10D6 JUMPI PUSH1 0x0 DUP1 REVERT JUMPDEST POP GAS CALL ISZERO DUP1 ISZERO PUSH2 0x10EA JUMPI RETURNDATASIZE PUSH1 0x0 DUP1 RETURNDATACOPY RETURNDATASIZE PUSH1 0x0 REVERT JUMPDEST POP POP POP POP PUSH1 0x40 MLOAD RETURNDATASIZE PUSH1 0x20 DUP2 LT ISZERO PUSH2 0x1100 JUMPI PUSH1 0x0 DUP1 REVERT JUMPDEST DUP2 ADD SWAP1 DUP1 DUP1 MLOAD SWAP1 PUSH1 0x20 ADD SWAP1 SWAP3 SWAP2 SWAP1 POP POP POP SWAP1 POP PUSH4 0x150B7A02 PUSH1 0xE0 SHL PUSH28 0xFFFFFFFFFFFFFFFFFFFFFFFFFFFFFFFFFFFFFFFFFFFFFFFFFFFFFFFF NOT AND DUP2 PUSH28 0xFFFFFFFFFFFFFFFFFFFFFFFFFFFFFFFFFFFFFFFFFFFFFFFFFFFFFFFF NOT AND EQ SWAP2 POP POP JUMPDEST SWAP5 SWAP4 POP POP POP POP JUMP JUMPDEST PUSH1 0x0 PUSH20 0xFFFFFFFFFFFFFFFFFFFFFFFFFFFFFFFFFFFFFFFF AND PUSH1 0x2 PUSH1 0x0 DUP4 DUP2 MSTORE PUSH1 0x20 ADD SWAP1 DUP2 MSTORE PUSH1 0x20 ADD PUSH1 0x0 KECCAK256 PUSH1 0x0 SWAP1 SLOAD SWAP1 PUSH2 0x100 EXP SWAP1 DIV PUSH20 0xFFFFFFFFFFFFFFFFFFFFFFFFFFFFFFFFFFFFFFFF AND PUSH20 0xFFFFFFFFFFFFFFFFFFFFFFFFFFFFFFFFFFFFFFFF AND EQ PUSH2 0x1222 JUMPI PUSH1 0x0 PUSH1 0x2 PUSH1 0x0 DUP4 DUP2 MSTORE PUSH1 0x20 ADD SWAP1 DUP2 MSTORE PUSH1 0x20 ADD PUSH1 0x0 KECCAK256 PUSH1 0x0 PUSH2 0x100 EXP DUP2 SLOAD DUP2 PUSH20 0xFFFFFFFFFFFFFFFFFFFFFFFFFFFFFFFFFFFFFFFF MUL NOT AND SWAP1 DUP4 PUSH20 0xFFFFFFFFFFFFFFFFFFFFFFFFFFFFFFFFFFFFFFFF AND MUL OR SWAP1 SSTORE POP JUMPDEST POP JUMP JUMPDEST PUSH2 0x123D PUSH1 0x1 DUP3 PUSH1 0x0 ADD SLOAD PUSH2 0x1271 SWAP1 SWAP2 SWAP1 PUSH4 0xFFFFFFFF AND JUMP JUMPDEST DUP2 PUSH1 0x0 ADD DUP2 SWAP1 SSTORE POP POP JUMP JUMPDEST PUSH1 0x1 DUP2 PUSH1 0x0 ADD PUSH1 0x0 DUP3 DUP3 SLOAD ADD SWAP3 POP POP DUP2 SWAP1 SSTORE POP POP JUMP JUMPDEST PUSH1 0x0 DUP1 DUP3 EXTCODESIZE SWAP1 POP PUSH1 0x0 DUP2 GT SWAP2 POP POP SWAP2 SWAP1 POP JUMP JUMPDEST PUSH1 0x0 DUP3 DUP3 GT ISZERO PUSH2 0x12E9 JUMPI PUSH1 0x40 MLOAD PUSH32 0x8C379A000000000000000000000000000000000000000000000000000000000 DUP2 MSTORE PUSH1 0x4 ADD DUP1 DUP1 PUSH1 0x20 ADD DUP3 DUP2 SUB DUP3 MSTORE PUSH1 0x1E DUP2 MSTORE PUSH1 0x20 ADD DUP1 PUSH32 0x536166654D6174683A207375627472616374696F6E206F766572666C6F770000 DUP2 MSTORE POP PUSH1 0x20 ADD SWAP2 POP POP PUSH1 0x40 MLOAD DUP1 SWAP2 SUB SWAP1 REVERT JUMPDEST PUSH1 0x0 DUP3 DUP5 SUB SWAP1 POP DUP1 SWAP2 POP POP SWAP3 SWAP2 POP POP JUMP INVALID LOG2 PUSH6 0x627A7A723158 KECCAK256 0xE2 0xE 0xE2 0xAA 0x24 0xEF 0x5C NOT 0xDD CALLVALUE 0xE3 LOG0 0xCD GAS GASPRICE 0xAE 0xAA EXTCODESIZE 0xAB ADDRESS 0xC3 0xB2 SWAP15 0xE1 0x28 PC 0xAB SWAP2 0xB0 0xD 0xB3 0x2D PUSH5 0x736F6C6343 STOP SDIV GT STOP ORIGIN "
				},
				"gasEstimates": {
					"creation": {
						"codeDepositCost": "982200",
						"executionCost": "infinite",
						"totalCost": "infinite"
					},
					"external": {
						"approve(address,uint256)": "25354",
						"balanceOf(address)": "1327",
						"getApproved(uint256)": "2257",
						"isApprovedForAll(address,address)": "1479",
						"ownerOf(uint256)": "1299",
						"revoke(uint256)": "infinite",
						"safeTransferFrom(address,address,uint256)": "infinite",
						"safeTransferFrom(address,address,uint256,bytes)": "infinite",
						"setApprovalForAll(address,bool)": "23264",
						"supportsInterface(bytes4)": "1254",
						"transferFrom(address,address,uint256)": "infinite"
					},
					"internal": {
						"_burn(address,uint256)": "infinite",
						"_burn(uint256)": "infinite",
						"_checkOnERC721Received(address,address,uint256,bytes memory)": "infinite",
						"_clearApproval(uint256)": "21911",
						"_exists(uint256)": "982",
						"_isApprovedOrOwner(address,uint256)": "infinite",
						"_mint(address,uint256)": "infinite",
						"_transferFrom(address,address,uint256)": "infinite"
					}
				},
				"methodIdentifiers": {
					"approve(address,uint256)": "095ea7b3",
					"balanceOf(address)": "70a08231",
					"getApproved(uint256)": "081812fc",
					"isApprovedForAll(address,address)": "e985e9c5",
					"ownerOf(uint256)": "6352211e",
					"revoke(uint256)": "20c5429b",
					"safeTransferFrom(address,address,uint256)": "42842e0e",
					"safeTransferFrom(address,address,uint256,bytes)": "b88d4fde",
					"setApprovalForAll(address,bool)": "a22cb465",
					"supportsInterface(bytes4)": "01ffc9a7",
					"transferFrom(address,address,uint256)": "23b872dd"
				}
			},
			"storageLayout": {
				"storage": [
					{
						"astId": 212,
						"contract": "contracts/MyToken.sol:ERC721",
						"label": "_supportedInterfaces",
						"offset": 0,
						"slot": "0",
						"type": "t_mapping(t_bytes4,t_bool)"
					},
					{
						"astId": 391,
						"contract": "contracts/MyToken.sol:ERC721",
						"label": "_tokenOwner",
						"offset": 0,
						"slot": "1",
						"type": "t_mapping(t_uint256,t_address)"
					},
					{
						"astId": 395,
						"contract": "contracts/MyToken.sol:ERC721",
						"label": "_tokenApprovals",
						"offset": 0,
						"slot": "2",
						"type": "t_mapping(t_uint256,t_address)"
					},
					{
						"astId": 399,
						"contract": "contracts/MyToken.sol:ERC721",
						"label": "_ownedTokensCount",
						"offset": 0,
						"slot": "3",
						"type": "t_mapping(t_address,t_struct(Counter)155_storage)"
					},
					{
						"astId": 405,
						"contract": "contracts/MyToken.sol:ERC721",
						"label": "_operatorApprovals",
						"offset": 0,
						"slot": "4",
						"type": "t_mapping(t_address,t_mapping(t_address,t_bool))"
					}
				],
				"types": {
					"t_address": {
						"encoding": "inplace",
						"label": "address",
						"numberOfBytes": "20"
					},
					"t_bool": {
						"encoding": "inplace",
						"label": "bool",
						"numberOfBytes": "1"
					},
					"t_bytes4": {
						"encoding": "inplace",
						"label": "bytes4",
						"numberOfBytes": "4"
					},
					"t_mapping(t_address,t_bool)": {
						"encoding": "mapping",
						"key": "t_address",
						"label": "mapping(address => bool)",
						"numberOfBytes": "32",
						"value": "t_bool"
					},
					"t_mapping(t_address,t_mapping(t_address,t_bool))": {
						"encoding": "mapping",
						"key": "t_address",
						"label": "mapping(address => mapping(address => bool))",
						"numberOfBytes": "32",
						"value": "t_mapping(t_address,t_bool)"
					},
					"t_mapping(t_address,t_struct(Counter)155_storage)": {
						"encoding": "mapping",
						"key": "t_address",
						"label": "mapping(address => struct Counters.Counter)",
						"numberOfBytes": "32",
						"value": "t_struct(Counter)155_storage"
					},
					"t_mapping(t_bytes4,t_bool)": {
						"encoding": "mapping",
						"key": "t_bytes4",
						"label": "mapping(bytes4 => bool)",
						"numberOfBytes": "32",
						"value": "t_bool"
					},
					"t_mapping(t_uint256,t_address)": {
						"encoding": "mapping",
						"key": "t_uint256",
						"label": "mapping(uint256 => address)",
						"numberOfBytes": "32",
						"value": "t_address"
					},
					"t_struct(Counter)155_storage": {
						"encoding": "inplace",
						"label": "struct Counters.Counter",
						"members": [
							{
								"astId": 154,
								"contract": "contracts/MyToken.sol:ERC721",
								"label": "_value",
								"offset": 0,
								"slot": "0",
								"type": "t_uint256"
							}
						],
						"numberOfBytes": "32"
					},
					"t_uint256": {
						"encoding": "inplace",
						"label": "uint256",
						"numberOfBytes": "32"
					}
				}
			},
			"userdoc": {
				"methods": {}
			}
		}
	}
}